{
	"contracts/Library.sol": {
		"Library": {
			"abi": [
				{
					"inputs": [],
					"stateMutability": "nonpayable",
					"type": "constructor"
				},
				{
					"anonymous": false,
					"inputs": [
						{
							"indexed": false,
							"internalType": "string",
							"name": "title",
							"type": "string"
						}
					],
					"name": "BookAdded",
					"type": "event"
				},
				{
					"anonymous": false,
					"inputs": [
						{
							"indexed": false,
							"internalType": "string",
							"name": "title",
							"type": "string"
						},
						{
							"indexed": false,
							"internalType": "address",
							"name": "borrower",
							"type": "address"
						}
					],
					"name": "BookBorrowed",
					"type": "event"
				},
				{
					"anonymous": false,
					"inputs": [
						{
							"indexed": false,
							"internalType": "string",
							"name": "title",
							"type": "string"
						}
					],
					"name": "BookRemoved",
					"type": "event"
				},
				{
					"anonymous": false,
					"inputs": [
						{
							"indexed": false,
							"internalType": "string",
							"name": "title",
							"type": "string"
						}
					],
					"name": "BookReturned",
					"type": "event"
				},
				{
					"inputs": [
						{
							"internalType": "string",
							"name": "_title",
							"type": "string"
						}
					],
					"name": "addBook",
					"outputs": [],
					"stateMutability": "nonpayable",
					"type": "function"
				},
				{
					"inputs": [],
					"name": "bookCount",
					"outputs": [
						{
							"internalType": "uint256",
							"name": "",
							"type": "uint256"
						}
					],
					"stateMutability": "view",
					"type": "function"
				},
				{
					"inputs": [
						{
							"internalType": "string",
							"name": "_title",
							"type": "string"
						}
					],
					"name": "borrowBook",
					"outputs": [],
					"stateMutability": "nonpayable",
					"type": "function"
				},
				{
					"inputs": [],
					"name": "owner",
					"outputs": [
						{
							"internalType": "address",
							"name": "",
							"type": "address"
						}
					],
					"stateMutability": "view",
					"type": "function"
				},
				{
					"inputs": [
						{
							"internalType": "string",
							"name": "_title",
							"type": "string"
						}
					],
					"name": "removeBook",
					"outputs": [],
					"stateMutability": "nonpayable",
					"type": "function"
				},
				{
					"inputs": [
						{
							"internalType": "string",
							"name": "_title",
							"type": "string"
						}
					],
					"name": "returnBook",
					"outputs": [],
					"stateMutability": "nonpayable",
					"type": "function"
				}
			],
			"devdoc": {
				"kind": "dev",
				"methods": {},
				"version": 1
			},
			"evm": {
				"assembly": "    /* \"contracts/Library.sol\":61:1806  contract Library {... */\n  mstore(0x40, 0x80)\n    /* \"contracts/Library.sol\":283:334  constructor() {... */\n  callvalue\n  dup1\n  iszero\n  tag_1\n  jumpi\n  0x00\n  dup1\n  revert\ntag_1:\n  pop\n    /* \"contracts/Library.sol\":316:326  msg.sender */\n  caller\n    /* \"contracts/Library.sol\":308:313  owner */\n  0x00\n  dup1\n    /* \"contracts/Library.sol\":308:326  owner = msg.sender */\n  0x0100\n  exp\n  dup2\n  sload\n  dup2\n  0xffffffffffffffffffffffffffffffffffffffff\n  mul\n  not\n  and\n  swap1\n  dup4\n  0xffffffffffffffffffffffffffffffffffffffff\n  and\n  mul\n  or\n  swap1\n  sstore\n  pop\n    /* \"contracts/Library.sol\":61:1806  contract Library {... */\n  dataSize(sub_0)\n  dup1\n  dataOffset(sub_0)\n  0x00\n  codecopy\n  0x00\n  return\nstop\n\nsub_0: assembly {\n        /* \"contracts/Library.sol\":61:1806  contract Library {... */\n      mstore(0x40, 0x80)\n      callvalue\n      dup1\n      iszero\n      tag_1\n      jumpi\n      0x00\n      dup1\n      revert\n    tag_1:\n      pop\n      jumpi(tag_2, lt(calldatasize, 0x04))\n      shr(0xe0, calldataload(0x00))\n      dup1\n      0x1ef49a8c\n      eq\n      tag_3\n      jumpi\n      dup1\n      0x3bc5f48a\n      eq\n      tag_4\n      jumpi\n      dup1\n      0x6e4a44c5\n      eq\n      tag_5\n      jumpi\n      dup1\n      0x8da5cb5b\n      eq\n      tag_6\n      jumpi\n      dup1\n      0xb905ad78\n      eq\n      tag_7\n      jumpi\n      dup1\n      0xced96fe3\n      eq\n      tag_8\n      jumpi\n    tag_2:\n      0x00\n      dup1\n      revert\n        /* \"contracts/Library.sol\":1199:1554  function returnBook(string calldata _title) public {... */\n    tag_3:\n      tag_9\n      0x04\n      dup1\n      calldatasize\n      sub\n      dup2\n      add\n      swap1\n      tag_10\n      swap2\n      swap1\n      tag_11\n      jump\t// in\n    tag_10:\n      tag_12\n      jump\t// in\n    tag_9:\n      stop\n        /* \"contracts/Library.sol\":639:815  function addBook(string memory _title) public onlyOwner {... */\n    tag_4:\n      tag_13\n      0x04\n      dup1\n      calldatasize\n      sub\n      dup2\n      add\n      swap1\n      tag_14\n      swap2\n      swap1\n      tag_15\n      jump\t// in\n    tag_14:\n      tag_16\n      jump\t// in\n    tag_13:\n      stop\n        /* \"contracts/Library.sol\":1562:1803  function removeBook(string calldata _title) public onlyOwner {... */\n    tag_5:\n      tag_17\n      0x04\n      dup1\n      calldatasize\n      sub\n      dup2\n      add\n      swap1\n      tag_18\n      swap2\n      swap1\n      tag_11\n      jump\t// in\n    tag_18:\n      tag_19\n      jump\t// in\n    tag_17:\n      stop\n        /* \"contracts/Library.sol\":85:105  address public owner */\n    tag_6:\n      tag_20\n      tag_21\n      jump\t// in\n    tag_20:\n      mload(0x40)\n      tag_22\n      swap2\n      swap1\n      tag_23\n      jump\t// in\n    tag_22:\n      mload(0x40)\n      dup1\n      swap2\n      sub\n      swap1\n      return\n        /* \"contracts/Library.sol\":253:274  uint public bookCount */\n    tag_7:\n      tag_24\n      tag_25\n      jump\t// in\n    tag_24:\n      mload(0x40)\n      tag_26\n      swap2\n      swap1\n      tag_27\n      jump\t// in\n    tag_26:\n      mload(0x40)\n      dup1\n      swap2\n      sub\n      swap1\n      return\n        /* \"contracts/Library.sol\":823:1191  function borrowBook(string calldata _title) public {... */\n    tag_8:\n      tag_28\n      0x04\n      dup1\n      calldatasize\n      sub\n      dup2\n      add\n      swap1\n      tag_29\n      swap2\n      swap1\n      tag_11\n      jump\t// in\n    tag_29:\n      tag_30\n      jump\t// in\n    tag_28:\n      stop\n        /* \"contracts/Library.sol\":1199:1554  function returnBook(string calldata _title) public {... */\n    tag_12:\n        /* \"contracts/Library.sol\":1305:1306  0 */\n      0x00\n        /* \"contracts/Library.sol\":1275:1280  Books */\n      0x01\n        /* \"contracts/Library.sol\":1281:1287  _title */\n      dup4\n      dup4\n        /* \"contracts/Library.sol\":1275:1288  Books[_title] */\n      mload(0x40)\n      tag_32\n      swap3\n      swap2\n      swap1\n      tag_33\n      jump\t// in\n    tag_32:\n      swap1\n      dup2\n      mstore\n      0x20\n      add\n      mload(0x40)\n      dup1\n      swap2\n      sub\n      swap1\n      keccak256\n        /* \"contracts/Library.sol\":1275:1294  Books[_title].title */\n      0x00\n      add\n        /* \"contracts/Library.sol\":1269:1302  bytes(Books[_title].title).length */\n      dup1\n      sload\n      tag_34\n      swap1\n      tag_35\n      jump\t// in\n    tag_34:\n      swap1\n      pop\n        /* \"contracts/Library.sol\":1269:1306  bytes(Books[_title].title).length > 0 */\n      gt\n        /* \"contracts/Library.sol\":1261:1334  require(bytes(Books[_title].title).length > 0, \"This book doesn't exist\") */\n      tag_36\n      jumpi\n      mload(0x40)\n      0x08c379a000000000000000000000000000000000000000000000000000000000\n      dup2\n      mstore\n      0x04\n      add\n      tag_37\n      swap1\n      tag_38\n      jump\t// in\n    tag_37:\n      mload(0x40)\n      dup1\n      swap2\n      sub\n      swap1\n      revert\n    tag_36:\n        /* \"contracts/Library.sol\":1379:1389  msg.sender */\n      caller\n        /* \"contracts/Library.sol\":1353:1389  Books[_title].borrower == msg.sender */\n      0xffffffffffffffffffffffffffffffffffffffff\n      and\n        /* \"contracts/Library.sol\":1353:1358  Books */\n      0x01\n        /* \"contracts/Library.sol\":1359:1365  _title */\n      dup4\n      dup4\n        /* \"contracts/Library.sol\":1353:1366  Books[_title] */\n      mload(0x40)\n      tag_39\n      swap3\n      swap2\n      swap1\n      tag_33\n      jump\t// in\n    tag_39:\n      swap1\n      dup2\n      mstore\n      0x20\n      add\n      mload(0x40)\n      dup1\n      swap2\n      sub\n      swap1\n      keccak256\n        /* \"contracts/Library.sol\":1353:1375  Books[_title].borrower */\n      0x01\n      add\n      0x00\n      swap1\n      sload\n      swap1\n      0x0100\n      exp\n      swap1\n      div\n      0xffffffffffffffffffffffffffffffffffffffff\n      and\n        /* \"contracts/Library.sol\":1353:1389  Books[_title].borrower == msg.sender */\n      0xffffffffffffffffffffffffffffffffffffffff\n      and\n      eq\n        /* \"contracts/Library.sol\":1345:1421  require(Books[_title].borrower == msg.sender, \"You didn't borrow this book\") */\n      tag_40\n      jumpi\n      mload(0x40)\n      0x08c379a000000000000000000000000000000000000000000000000000000000\n      dup2\n      mstore\n      0x04\n      add\n      tag_41\n      swap1\n      tag_42\n      jump\t// in\n    tag_41:\n      mload(0x40)\n      dup1\n      swap2\n      sub\n      swap1\n      revert\n    tag_40:\n        /* \"contracts/Library.sol\":1467:1468  0 */\n      0x00\n        /* \"contracts/Library.sol\":1434:1439  Books */\n      0x01\n        /* \"contracts/Library.sol\":1440:1446  _title */\n      dup4\n      dup4\n        /* \"contracts/Library.sol\":1434:1447  Books[_title] */\n      mload(0x40)\n      tag_43\n      swap3\n      swap2\n      swap1\n      tag_33\n      jump\t// in\n    tag_43:\n      swap1\n      dup2\n      mstore\n      0x20\n      add\n      mload(0x40)\n      dup1\n      swap2\n      sub\n      swap1\n      keccak256\n        /* \"contracts/Library.sol\":1434:1456  Books[_title].borrower */\n      0x01\n      add\n      0x00\n        /* \"contracts/Library.sol\":1434:1469  Books[_title].borrower = address(0) */\n      0x0100\n      exp\n      dup2\n      sload\n      dup2\n      0xffffffffffffffffffffffffffffffffffffffff\n      mul\n      not\n      and\n      swap1\n      dup4\n      0xffffffffffffffffffffffffffffffffffffffff\n      and\n      mul\n      or\n      swap1\n      sstore\n      pop\n        /* \"contracts/Library.sol\":1506:1510  true */\n      0x01\n        /* \"contracts/Library.sol\":1480:1485  Books */\n      dup1\n        /* \"contracts/Library.sol\":1486:1492  _title */\n      dup4\n      dup4\n        /* \"contracts/Library.sol\":1480:1493  Books[_title] */\n      mload(0x40)\n      tag_44\n      swap3\n      swap2\n      swap1\n      tag_33\n      jump\t// in\n    tag_44:\n      swap1\n      dup2\n      mstore\n      0x20\n      add\n      mload(0x40)\n      dup1\n      swap2\n      sub\n      swap1\n      keccak256\n        /* \"contracts/Library.sol\":1480:1503  Books[_title].available */\n      0x01\n      add\n      0x14\n        /* \"contracts/Library.sol\":1480:1510  Books[_title].available = true */\n      0x0100\n      exp\n      dup2\n      sload\n      dup2\n      0xff\n      mul\n      not\n      and\n      swap1\n      dup4\n      iszero\n      iszero\n      mul\n      or\n      swap1\n      sstore\n      pop\n        /* \"contracts/Library.sol\":1526:1546  BookReturned(_title) */\n      0x1a467d925cbd35155a7cdd05f9207ad929a02ffb3292ece4d3291a4359f6c83c\n        /* \"contracts/Library.sol\":1539:1545  _title */\n      dup3\n      dup3\n        /* \"contracts/Library.sol\":1526:1546  BookReturned(_title) */\n      mload(0x40)\n      tag_45\n      swap3\n      swap2\n      swap1\n      tag_46\n      jump\t// in\n    tag_45:\n      mload(0x40)\n      dup1\n      swap2\n      sub\n      swap1\n      log1\n        /* \"contracts/Library.sol\":1199:1554  function returnBook(string calldata _title) public {... */\n      pop\n      pop\n      jump\t// out\n        /* \"contracts/Library.sol\":639:815  function addBook(string memory _title) public onlyOwner {... */\n    tag_16:\n        /* \"contracts/Library.sol\":396:401  owner */\n      0x00\n      dup1\n      sload\n      swap1\n      0x0100\n      exp\n      swap1\n      div\n      0xffffffffffffffffffffffffffffffffffffffff\n      and\n        /* \"contracts/Library.sol\":382:401  msg.sender == owner */\n      0xffffffffffffffffffffffffffffffffffffffff\n      and\n        /* \"contracts/Library.sol\":382:392  msg.sender */\n      caller\n        /* \"contracts/Library.sol\":382:401  msg.sender == owner */\n      0xffffffffffffffffffffffffffffffffffffffff\n      and\n      eq\n        /* \"contracts/Library.sol\":374:439  require(msg.sender == owner, \"Only owner can call this function\") */\n      tag_48\n      jumpi\n      mload(0x40)\n      0x08c379a000000000000000000000000000000000000000000000000000000000\n      dup2\n      mstore\n      0x04\n      add\n      tag_49\n      swap1\n      tag_50\n      jump\t// in\n    tag_49:\n      mload(0x40)\n      dup1\n      swap2\n      sub\n      swap1\n      revert\n    tag_48:\n        /* \"contracts/Library.sol\":706:715  bookCount */\n      0x02\n      0x00\n        /* \"contracts/Library.sol\":706:717  bookCount++ */\n      dup2\n      sload\n      dup1\n      swap3\n      swap2\n      swap1\n      tag_52\n      swap1\n      tag_53\n      jump\t// in\n    tag_52:\n      swap2\n      swap1\n      pop\n      sstore\n      pop\n        /* \"contracts/Library.sol\":744:774  book(_title, address(0), true) */\n      mload(0x40)\n      dup1\n      0x60\n      add\n      0x40\n      mstore\n      dup1\n        /* \"contracts/Library.sol\":749:755  _title */\n      dup3\n        /* \"contracts/Library.sol\":744:774  book(_title, address(0), true) */\n      dup2\n      mstore\n      0x20\n      add\n        /* \"contracts/Library.sol\":765:766  0 */\n      0x00\n        /* \"contracts/Library.sol\":744:774  book(_title, address(0), true) */\n      0xffffffffffffffffffffffffffffffffffffffff\n      and\n      dup2\n      mstore\n      0x20\n      add\n        /* \"contracts/Library.sol\":769:773  true */\n      0x01\n        /* \"contracts/Library.sol\":744:774  book(_title, address(0), true) */\n      iszero\n      iszero\n      dup2\n      mstore\n      pop\n        /* \"contracts/Library.sol\":728:733  Books */\n      0x01\n        /* \"contracts/Library.sol\":734:740  _title */\n      dup3\n        /* \"contracts/Library.sol\":728:741  Books[_title] */\n      mload(0x40)\n      tag_54\n      swap2\n      swap1\n      tag_55\n      jump\t// in\n    tag_54:\n      swap1\n      dup2\n      mstore\n      0x20\n      add\n      mload(0x40)\n      dup1\n      swap2\n      sub\n      swap1\n      keccak256\n        /* \"contracts/Library.sol\":728:774  Books[_title] = book(_title, address(0), true) */\n      0x00\n      dup3\n      add\n      mload\n      dup2\n      0x00\n      add\n      swap1\n      dup2\n      tag_56\n      swap2\n      swap1\n      tag_57\n      jump\t// in\n    tag_56:\n      pop\n      0x20\n      dup3\n      add\n      mload\n      dup2\n      0x01\n      add\n      exp(0x0100, 0x00)\n      dup2\n      sload\n      dup2\n      0xffffffffffffffffffffffffffffffffffffffff\n      mul\n      not\n      and\n      swap1\n      dup4\n      0xffffffffffffffffffffffffffffffffffffffff\n      and\n      mul\n      or\n      swap1\n      sstore\n      pop\n      0x40\n      dup3\n      add\n      mload\n      dup2\n      0x01\n      add\n      exp(0x0100, 0x14)\n      dup2\n      sload\n      dup2\n      0xff\n      mul\n      not\n      and\n      swap1\n      dup4\n      iszero\n      iszero\n      mul\n      or\n      swap1\n      sstore\n      pop\n      swap1\n      pop\n      pop\n        /* \"contracts/Library.sol\":790:807  BookAdded(_title) */\n      0x272b168e2afaa6efdce672a6f4f4f1b37eb61405daf39e4b520beeeacb2596ef\n        /* \"contracts/Library.sol\":800:806  _title */\n      dup2\n        /* \"contracts/Library.sol\":790:807  BookAdded(_title) */\n      mload(0x40)\n      tag_58\n      swap2\n      swap1\n      tag_59\n      jump\t// in\n    tag_58:\n      mload(0x40)\n      dup1\n      swap2\n      sub\n      swap1\n      log1\n        /* \"contracts/Library.sol\":639:815  function addBook(string memory _title) public onlyOwner {... */\n      pop\n      jump\t// out\n        /* \"contracts/Library.sol\":1562:1803  function removeBook(string calldata _title) public onlyOwner {... */\n    tag_19:\n        /* \"contracts/Library.sol\":396:401  owner */\n      0x00\n      dup1\n      sload\n      swap1\n      0x0100\n      exp\n      swap1\n      div\n      0xffffffffffffffffffffffffffffffffffffffff\n      and\n        /* \"contracts/Library.sol\":382:401  msg.sender == owner */\n      0xffffffffffffffffffffffffffffffffffffffff\n      and\n        /* \"contracts/Library.sol\":382:392  msg.sender */\n      caller\n        /* \"contracts/Library.sol\":382:401  msg.sender == owner */\n      0xffffffffffffffffffffffffffffffffffffffff\n      and\n      eq\n        /* \"contracts/Library.sol\":374:439  require(msg.sender == owner, \"Only owner can call this function\") */\n      tag_61\n      jumpi\n      mload(0x40)\n      0x08c379a000000000000000000000000000000000000000000000000000000000\n      dup2\n      mstore\n      0x04\n      add\n      tag_62\n      swap1\n      tag_50\n      jump\t// in\n    tag_62:\n      mload(0x40)\n      dup1\n      swap2\n      sub\n      swap1\n      revert\n    tag_61:\n        /* \"contracts/Library.sol\":1678:1679  0 */\n      0x00\n        /* \"contracts/Library.sol\":1648:1653  Books */\n      0x01\n        /* \"contracts/Library.sol\":1654:1660  _title */\n      dup4\n      dup4\n        /* \"contracts/Library.sol\":1648:1661  Books[_title] */\n      mload(0x40)\n      tag_64\n      swap3\n      swap2\n      swap1\n      tag_33\n      jump\t// in\n    tag_64:\n      swap1\n      dup2\n      mstore\n      0x20\n      add\n      mload(0x40)\n      dup1\n      swap2\n      sub\n      swap1\n      keccak256\n        /* \"contracts/Library.sol\":1648:1667  Books[_title].title */\n      0x00\n      add\n        /* \"contracts/Library.sol\":1642:1675  bytes(Books[_title].title).length */\n      dup1\n      sload\n      tag_65\n      swap1\n      tag_35\n      jump\t// in\n    tag_65:\n      swap1\n      pop\n        /* \"contracts/Library.sol\":1642:1679  bytes(Books[_title].title).length > 0 */\n      gt\n        /* \"contracts/Library.sol\":1634:1707  require(bytes(Books[_title].title).length > 0, \"This book doesn't exist\") */\n      tag_66\n      jumpi\n      mload(0x40)\n      0x08c379a000000000000000000000000000000000000000000000000000000000\n      dup2\n      mstore\n      0x04\n      add\n      tag_67\n      swap1\n      tag_38\n      jump\t// in\n    tag_67:\n      mload(0x40)\n      dup1\n      swap2\n      sub\n      swap1\n      revert\n    tag_66:\n        /* \"contracts/Library.sol\":1718:1727  bookCount */\n      0x02\n      0x00\n        /* \"contracts/Library.sol\":1718:1729  bookCount-- */\n      dup2\n      sload\n      dup1\n      swap3\n      swap2\n      swap1\n      tag_68\n      swap1\n      tag_69\n      jump\t// in\n    tag_68:\n      swap2\n      swap1\n      pop\n      sstore\n      pop\n        /* \"contracts/Library.sol\":1747:1752  Books */\n      0x01\n        /* \"contracts/Library.sol\":1753:1759  _title */\n      dup3\n      dup3\n        /* \"contracts/Library.sol\":1747:1760  Books[_title] */\n      mload(0x40)\n      tag_70\n      swap3\n      swap2\n      swap1\n      tag_33\n      jump\t// in\n    tag_70:\n      swap1\n      dup2\n      mstore\n      0x20\n      add\n      mload(0x40)\n      dup1\n      swap2\n      sub\n      swap1\n      keccak256\n      0x00\n        /* \"contracts/Library.sol\":1740:1760  delete Books[_title] */\n      dup1\n      dup3\n      add\n      0x00\n      tag_71\n      swap2\n      swap1\n      tag_72\n      jump\t// in\n    tag_71:\n      0x01\n      dup3\n      add\n      exp(0x0100, 0x00)\n      dup2\n      sload\n      swap1\n      0xffffffffffffffffffffffffffffffffffffffff\n      mul\n      not\n      and\n      swap1\n      sstore\n      0x01\n      dup3\n      add\n      exp(0x0100, 0x14)\n      dup2\n      sload\n      swap1\n      0xff\n      mul\n      not\n      and\n      swap1\n      sstore\n      pop\n      pop\n        /* \"contracts/Library.sol\":1776:1795  BookRemoved(_title) */\n      0x2fbe5051f01f13ba3c0f1836a7495627a4aa5dc1bed39f88f01b531dc0c7756f\n        /* \"contracts/Library.sol\":1788:1794  _title */\n      dup3\n      dup3\n        /* \"contracts/Library.sol\":1776:1795  BookRemoved(_title) */\n      mload(0x40)\n      tag_73\n      swap3\n      swap2\n      swap1\n      tag_46\n      jump\t// in\n    tag_73:\n      mload(0x40)\n      dup1\n      swap2\n      sub\n      swap1\n      log1\n        /* \"contracts/Library.sol\":1562:1803  function removeBook(string calldata _title) public onlyOwner {... */\n      pop\n      pop\n      jump\t// out\n        /* \"contracts/Library.sol\":85:105  address public owner */\n    tag_21:\n      0x00\n      dup1\n      sload\n      swap1\n      0x0100\n      exp\n      swap1\n      div\n      0xffffffffffffffffffffffffffffffffffffffff\n      and\n      dup2\n      jump\t// out\n        /* \"contracts/Library.sol\":253:274  uint public bookCount */\n    tag_25:\n      sload(0x02)\n      dup2\n      jump\t// out\n        /* \"contracts/Library.sol\":823:1191  function borrowBook(string calldata _title) public {... */\n    tag_30:\n        /* \"contracts/Library.sol\":929:930  0 */\n      0x00\n        /* \"contracts/Library.sol\":899:904  Books */\n      0x01\n        /* \"contracts/Library.sol\":905:911  _title */\n      dup4\n      dup4\n        /* \"contracts/Library.sol\":899:912  Books[_title] */\n      mload(0x40)\n      tag_75\n      swap3\n      swap2\n      swap1\n      tag_33\n      jump\t// in\n    tag_75:\n      swap1\n      dup2\n      mstore\n      0x20\n      add\n      mload(0x40)\n      dup1\n      swap2\n      sub\n      swap1\n      keccak256\n        /* \"contracts/Library.sol\":899:918  Books[_title].title */\n      0x00\n      add\n        /* \"contracts/Library.sol\":893:926  bytes(Books[_title].title).length */\n      dup1\n      sload\n      tag_76\n      swap1\n      tag_35\n      jump\t// in\n    tag_76:\n      swap1\n      pop\n        /* \"contracts/Library.sol\":893:930  bytes(Books[_title].title).length > 0 */\n      gt\n        /* \"contracts/Library.sol\":885:958  require(bytes(Books[_title].title).length > 0, \"This book doesn't exist\") */\n      tag_77\n      jumpi\n      mload(0x40)\n      0x08c379a000000000000000000000000000000000000000000000000000000000\n      dup2\n      mstore\n      0x04\n      add\n      tag_78\n      swap1\n      tag_38\n      jump\t// in\n    tag_78:\n      mload(0x40)\n      dup1\n      swap2\n      sub\n      swap1\n      revert\n    tag_77:\n        /* \"contracts/Library.sol\":977:982  Books */\n      0x01\n        /* \"contracts/Library.sol\":983:989  _title */\n      dup3\n      dup3\n        /* \"contracts/Library.sol\":977:990  Books[_title] */\n      mload(0x40)\n      tag_79\n      swap3\n      swap2\n      swap1\n      tag_33\n      jump\t// in\n    tag_79:\n      swap1\n      dup2\n      mstore\n      0x20\n      add\n      mload(0x40)\n      dup1\n      swap2\n      sub\n      swap1\n      keccak256\n        /* \"contracts/Library.sol\":977:1000  Books[_title].available */\n      0x01\n      add\n      0x14\n      swap1\n      sload\n      swap1\n      0x0100\n      exp\n      swap1\n      div\n      0xff\n      and\n        /* \"contracts/Library.sol\":969:1045  require(Books[_title].available, \"This book is not available for borrowing\") */\n      tag_80\n      jumpi\n      mload(0x40)\n      0x08c379a000000000000000000000000000000000000000000000000000000000\n      dup2\n      mstore\n      0x04\n      add\n      tag_81\n      swap1\n      tag_82\n      jump\t// in\n    tag_81:\n      mload(0x40)\n      dup1\n      swap2\n      sub\n      swap1\n      revert\n    tag_80:\n        /* \"contracts/Library.sol\":1083:1093  msg.sender */\n      caller\n        /* \"contracts/Library.sol\":1058:1063  Books */\n      0x01\n        /* \"contracts/Library.sol\":1064:1070  _title */\n      dup4\n      dup4\n        /* \"contracts/Library.sol\":1058:1071  Books[_title] */\n      mload(0x40)\n      tag_83\n      swap3\n      swap2\n      swap1\n      tag_33\n      jump\t// in\n    tag_83:\n      swap1\n      dup2\n      mstore\n      0x20\n      add\n      mload(0x40)\n      dup1\n      swap2\n      sub\n      swap1\n      keccak256\n        /* \"contracts/Library.sol\":1058:1080  Books[_title].borrower */\n      0x01\n      add\n      0x00\n        /* \"contracts/Library.sol\":1058:1093  Books[_title].borrower = msg.sender */\n      0x0100\n      exp\n      dup2\n      sload\n      dup2\n      0xffffffffffffffffffffffffffffffffffffffff\n      mul\n      not\n      and\n      swap1\n      dup4\n      0xffffffffffffffffffffffffffffffffffffffff\n      and\n      mul\n      or\n      swap1\n      sstore\n      pop\n        /* \"contracts/Library.sol\":1130:1135  false */\n      0x00\n        /* \"contracts/Library.sol\":1104:1109  Books */\n      0x01\n        /* \"contracts/Library.sol\":1110:1116  _title */\n      dup4\n      dup4\n        /* \"contracts/Library.sol\":1104:1117  Books[_title] */\n      mload(0x40)\n      tag_84\n      swap3\n      swap2\n      swap1\n      tag_33\n      jump\t// in\n    tag_84:\n      swap1\n      dup2\n      mstore\n      0x20\n      add\n      mload(0x40)\n      dup1\n      swap2\n      sub\n      swap1\n      keccak256\n        /* \"contracts/Library.sol\":1104:1127  Books[_title].available */\n      0x01\n      add\n      0x14\n        /* \"contracts/Library.sol\":1104:1135  Books[_title].available = false */\n      0x0100\n      exp\n      dup2\n      sload\n      dup2\n      0xff\n      mul\n      not\n      and\n      swap1\n      dup4\n      iszero\n      iszero\n      mul\n      or\n      swap1\n      sstore\n      pop\n        /* \"contracts/Library.sol\":1151:1183  BookBorrowed(_title, msg.sender) */\n      0x469d7b1cb358edcbc2c8e949b8a6598672e51661418984c55d85a904a4b22053\n        /* \"contracts/Library.sol\":1164:1170  _title */\n      dup3\n      dup3\n        /* \"contracts/Library.sol\":1172:1182  msg.sender */\n      caller\n        /* \"contracts/Library.sol\":1151:1183  BookBorrowed(_title, msg.sender) */\n      mload(0x40)\n      tag_85\n      swap4\n      swap3\n      swap2\n      swap1\n      tag_86\n      jump\t// in\n    tag_85:\n      mload(0x40)\n      dup1\n      swap2\n      sub\n      swap1\n      log1\n        /* \"contracts/Library.sol\":823:1191  function borrowBook(string calldata _title) public {... */\n      pop\n      pop\n      jump\t// out\n    tag_72:\n      pop\n      dup1\n      sload\n      tag_87\n      swap1\n      tag_35\n      jump\t// in\n    tag_87:\n      0x00\n      dup3\n      sstore\n      dup1\n      0x1f\n      lt\n      tag_89\n      jumpi\n      pop\n      jump(tag_88)\n    tag_89:\n      0x1f\n      add\n      0x20\n      swap1\n      div\n      swap1\n      0x00\n      mstore\n      keccak256(0x00, 0x20)\n      swap1\n      dup2\n      add\n      swap1\n      tag_90\n      swap2\n      swap1\n      tag_91\n      jump\t// in\n    tag_90:\n    tag_88:\n      pop\n      jump\t// out\n    tag_91:\n    tag_92:\n      dup1\n      dup3\n      gt\n      iszero\n      tag_93\n      jumpi\n      0x00\n      dup2\n      0x00\n      swap1\n      sstore\n      pop\n      0x01\n      add\n      jump(tag_92)\n    tag_93:\n      pop\n      swap1\n      jump\t// out\n        /* \"#utility.yul\":7:82   */\n    tag_94:\n        /* \"#utility.yul\":40:46   */\n      0x00\n        /* \"#utility.yul\":73:75   */\n      0x40\n        /* \"#utility.yul\":67:76   */\n      mload\n        /* \"#utility.yul\":57:76   */\n      swap1\n      pop\n        /* \"#utility.yul\":7:82   */\n      swap1\n      jump\t// out\n        /* \"#utility.yul\":88:205   */\n    tag_95:\n        /* \"#utility.yul\":197:198   */\n      0x00\n        /* \"#utility.yul\":194:195   */\n      dup1\n        /* \"#utility.yul\":187:199   */\n      revert\n        /* \"#utility.yul\":211:328   */\n    tag_96:\n        /* \"#utility.yul\":320:321   */\n      0x00\n        /* \"#utility.yul\":317:318   */\n      dup1\n        /* \"#utility.yul\":310:322   */\n      revert\n        /* \"#utility.yul\":334:451   */\n    tag_97:\n        /* \"#utility.yul\":443:444   */\n      0x00\n        /* \"#utility.yul\":440:441   */\n      dup1\n        /* \"#utility.yul\":433:445   */\n      revert\n        /* \"#utility.yul\":457:574   */\n    tag_98:\n        /* \"#utility.yul\":566:567   */\n      0x00\n        /* \"#utility.yul\":563:564   */\n      dup1\n        /* \"#utility.yul\":556:568   */\n      revert\n        /* \"#utility.yul\":580:697   */\n    tag_99:\n        /* \"#utility.yul\":689:690   */\n      0x00\n        /* \"#utility.yul\":686:687   */\n      dup1\n        /* \"#utility.yul\":679:691   */\n      revert\n        /* \"#utility.yul\":717:1270   */\n    tag_100:\n        /* \"#utility.yul\":775:783   */\n      0x00\n        /* \"#utility.yul\":785:791   */\n      dup1\n        /* \"#utility.yul\":835:838   */\n      dup4\n        /* \"#utility.yul\":828:832   */\n      0x1f\n        /* \"#utility.yul\":820:826   */\n      dup5\n        /* \"#utility.yul\":816:833   */\n      add\n        /* \"#utility.yul\":812:839   */\n      slt\n        /* \"#utility.yul\":802:924   */\n      tag_156\n      jumpi\n        /* \"#utility.yul\":843:922   */\n      tag_157\n      tag_97\n      jump\t// in\n    tag_157:\n        /* \"#utility.yul\":802:924   */\n    tag_156:\n        /* \"#utility.yul\":956:962   */\n      dup3\n        /* \"#utility.yul\":943:963   */\n      calldataload\n        /* \"#utility.yul\":933:963   */\n      swap1\n      pop\n        /* \"#utility.yul\":986:1004   */\n      0xffffffffffffffff\n        /* \"#utility.yul\":978:984   */\n      dup2\n        /* \"#utility.yul\":975:1005   */\n      gt\n        /* \"#utility.yul\":972:1089   */\n      iszero\n      tag_158\n      jumpi\n        /* \"#utility.yul\":1008:1087   */\n      tag_159\n      tag_98\n      jump\t// in\n    tag_159:\n        /* \"#utility.yul\":972:1089   */\n    tag_158:\n        /* \"#utility.yul\":1122:1126   */\n      0x20\n        /* \"#utility.yul\":1114:1120   */\n      dup4\n        /* \"#utility.yul\":1110:1127   */\n      add\n        /* \"#utility.yul\":1098:1127   */\n      swap2\n      pop\n        /* \"#utility.yul\":1176:1179   */\n      dup4\n        /* \"#utility.yul\":1168:1172   */\n      0x01\n        /* \"#utility.yul\":1160:1166   */\n      dup3\n        /* \"#utility.yul\":1156:1173   */\n      mul\n        /* \"#utility.yul\":1146:1154   */\n      dup4\n        /* \"#utility.yul\":1142:1174   */\n      add\n        /* \"#utility.yul\":1139:1180   */\n      gt\n        /* \"#utility.yul\":1136:1264   */\n      iszero\n      tag_160\n      jumpi\n        /* \"#utility.yul\":1183:1262   */\n      tag_161\n      tag_99\n      jump\t// in\n    tag_161:\n        /* \"#utility.yul\":1136:1264   */\n    tag_160:\n        /* \"#utility.yul\":717:1270   */\n      swap3\n      pop\n      swap3\n      swap1\n      pop\n      jump\t// out\n        /* \"#utility.yul\":1276:1805   */\n    tag_11:\n        /* \"#utility.yul\":1347:1353   */\n      0x00\n        /* \"#utility.yul\":1355:1361   */\n      dup1\n        /* \"#utility.yul\":1404:1406   */\n      0x20\n        /* \"#utility.yul\":1392:1401   */\n      dup4\n        /* \"#utility.yul\":1383:1390   */\n      dup6\n        /* \"#utility.yul\":1379:1402   */\n      sub\n        /* \"#utility.yul\":1375:1407   */\n      slt\n        /* \"#utility.yul\":1372:1491   */\n      iszero\n      tag_163\n      jumpi\n        /* \"#utility.yul\":1410:1489   */\n      tag_164\n      tag_95\n      jump\t// in\n    tag_164:\n        /* \"#utility.yul\":1372:1491   */\n    tag_163:\n        /* \"#utility.yul\":1558:1559   */\n      0x00\n        /* \"#utility.yul\":1547:1556   */\n      dup4\n        /* \"#utility.yul\":1543:1560   */\n      add\n        /* \"#utility.yul\":1530:1561   */\n      calldataload\n        /* \"#utility.yul\":1588:1606   */\n      0xffffffffffffffff\n        /* \"#utility.yul\":1580:1586   */\n      dup2\n        /* \"#utility.yul\":1577:1607   */\n      gt\n        /* \"#utility.yul\":1574:1691   */\n      iszero\n      tag_165\n      jumpi\n        /* \"#utility.yul\":1610:1689   */\n      tag_166\n      tag_96\n      jump\t// in\n    tag_166:\n        /* \"#utility.yul\":1574:1691   */\n    tag_165:\n        /* \"#utility.yul\":1723:1788   */\n      tag_167\n        /* \"#utility.yul\":1780:1787   */\n      dup6\n        /* \"#utility.yul\":1771:1777   */\n      dup3\n        /* \"#utility.yul\":1760:1769   */\n      dup7\n        /* \"#utility.yul\":1756:1778   */\n      add\n        /* \"#utility.yul\":1723:1788   */\n      tag_100\n      jump\t// in\n    tag_167:\n        /* \"#utility.yul\":1705:1788   */\n      swap3\n      pop\n      swap3\n      pop\n        /* \"#utility.yul\":1501:1798   */\n      pop\n        /* \"#utility.yul\":1276:1805   */\n      swap3\n      pop\n      swap3\n      swap1\n      pop\n      jump\t// out\n        /* \"#utility.yul\":1811:1928   */\n    tag_101:\n        /* \"#utility.yul\":1920:1921   */\n      0x00\n        /* \"#utility.yul\":1917:1918   */\n      dup1\n        /* \"#utility.yul\":1910:1922   */\n      revert\n        /* \"#utility.yul\":1934:2036   */\n    tag_102:\n        /* \"#utility.yul\":1975:1981   */\n      0x00\n        /* \"#utility.yul\":2026:2028   */\n      0x1f\n        /* \"#utility.yul\":2022:2029   */\n      not\n        /* \"#utility.yul\":2017:2019   */\n      0x1f\n        /* \"#utility.yul\":2010:2015   */\n      dup4\n        /* \"#utility.yul\":2006:2020   */\n      add\n        /* \"#utility.yul\":2002:2030   */\n      and\n        /* \"#utility.yul\":1992:2030   */\n      swap1\n      pop\n        /* \"#utility.yul\":1934:2036   */\n      swap2\n      swap1\n      pop\n      jump\t// out\n        /* \"#utility.yul\":2042:2222   */\n    tag_103:\n        /* \"#utility.yul\":2090:2167   */\n      0x4e487b7100000000000000000000000000000000000000000000000000000000\n        /* \"#utility.yul\":2087:2088   */\n      0x00\n        /* \"#utility.yul\":2080:2168   */\n      mstore\n        /* \"#utility.yul\":2187:2191   */\n      0x41\n        /* \"#utility.yul\":2184:2185   */\n      0x04\n        /* \"#utility.yul\":2177:2192   */\n      mstore\n        /* \"#utility.yul\":2211:2215   */\n      0x24\n        /* \"#utility.yul\":2208:2209   */\n      0x00\n        /* \"#utility.yul\":2201:2216   */\n      revert\n        /* \"#utility.yul\":2228:2509   */\n    tag_104:\n        /* \"#utility.yul\":2311:2338   */\n      tag_172\n        /* \"#utility.yul\":2333:2337   */\n      dup3\n        /* \"#utility.yul\":2311:2338   */\n      tag_102\n      jump\t// in\n    tag_172:\n        /* \"#utility.yul\":2303:2309   */\n      dup2\n        /* \"#utility.yul\":2299:2339   */\n      add\n        /* \"#utility.yul\":2441:2447   */\n      dup2\n        /* \"#utility.yul\":2429:2439   */\n      dup2\n        /* \"#utility.yul\":2426:2448   */\n      lt\n        /* \"#utility.yul\":2405:2423   */\n      0xffffffffffffffff\n        /* \"#utility.yul\":2393:2403   */\n      dup3\n        /* \"#utility.yul\":2390:2424   */\n      gt\n        /* \"#utility.yul\":2387:2449   */\n      or\n        /* \"#utility.yul\":2384:2472   */\n      iszero\n      tag_173\n      jumpi\n        /* \"#utility.yul\":2452:2470   */\n      tag_174\n      tag_103\n      jump\t// in\n    tag_174:\n        /* \"#utility.yul\":2384:2472   */\n    tag_173:\n        /* \"#utility.yul\":2492:2502   */\n      dup1\n        /* \"#utility.yul\":2488:2490   */\n      0x40\n        /* \"#utility.yul\":2481:2503   */\n      mstore\n        /* \"#utility.yul\":2271:2509   */\n      pop\n        /* \"#utility.yul\":2228:2509   */\n      pop\n      pop\n      jump\t// out\n        /* \"#utility.yul\":2515:2644   */\n    tag_105:\n        /* \"#utility.yul\":2549:2555   */\n      0x00\n        /* \"#utility.yul\":2576:2596   */\n      tag_176\n      tag_94\n      jump\t// in\n    tag_176:\n        /* \"#utility.yul\":2566:2596   */\n      swap1\n      pop\n        /* \"#utility.yul\":2605:2638   */\n      tag_177\n        /* \"#utility.yul\":2633:2637   */\n      dup3\n        /* \"#utility.yul\":2625:2631   */\n      dup3\n        /* \"#utility.yul\":2605:2638   */\n      tag_104\n      jump\t// in\n    tag_177:\n        /* \"#utility.yul\":2515:2644   */\n      swap2\n      swap1\n      pop\n      jump\t// out\n        /* \"#utility.yul\":2650:2958   */\n    tag_106:\n        /* \"#utility.yul\":2712:2716   */\n      0x00\n        /* \"#utility.yul\":2802:2820   */\n      0xffffffffffffffff\n        /* \"#utility.yul\":2794:2800   */\n      dup3\n        /* \"#utility.yul\":2791:2821   */\n      gt\n        /* \"#utility.yul\":2788:2844   */\n      iszero\n      tag_179\n      jumpi\n        /* \"#utility.yul\":2824:2842   */\n      tag_180\n      tag_103\n      jump\t// in\n    tag_180:\n        /* \"#utility.yul\":2788:2844   */\n    tag_179:\n        /* \"#utility.yul\":2862:2891   */\n      tag_181\n        /* \"#utility.yul\":2884:2890   */\n      dup3\n        /* \"#utility.yul\":2862:2891   */\n      tag_102\n      jump\t// in\n    tag_181:\n        /* \"#utility.yul\":2854:2891   */\n      swap1\n      pop\n        /* \"#utility.yul\":2946:2950   */\n      0x20\n        /* \"#utility.yul\":2940:2944   */\n      dup2\n        /* \"#utility.yul\":2936:2951   */\n      add\n        /* \"#utility.yul\":2928:2951   */\n      swap1\n      pop\n        /* \"#utility.yul\":2650:2958   */\n      swap2\n      swap1\n      pop\n      jump\t// out\n        /* \"#utility.yul\":2964:3110   */\n    tag_107:\n        /* \"#utility.yul\":3061:3067   */\n      dup3\n        /* \"#utility.yul\":3056:3059   */\n      dup2\n        /* \"#utility.yul\":3051:3054   */\n      dup4\n        /* \"#utility.yul\":3038:3068   */\n      calldatacopy\n        /* \"#utility.yul\":3102:3103   */\n      0x00\n        /* \"#utility.yul\":3093:3099   */\n      dup4\n        /* \"#utility.yul\":3088:3091   */\n      dup4\n        /* \"#utility.yul\":3084:3100   */\n      add\n        /* \"#utility.yul\":3077:3104   */\n      mstore\n        /* \"#utility.yul\":2964:3110   */\n      pop\n      pop\n      pop\n      jump\t// out\n        /* \"#utility.yul\":3116:3541   */\n    tag_108:\n        /* \"#utility.yul\":3194:3199   */\n      0x00\n        /* \"#utility.yul\":3219:3285   */\n      tag_184\n        /* \"#utility.yul\":3235:3284   */\n      tag_185\n        /* \"#utility.yul\":3277:3283   */\n      dup5\n        /* \"#utility.yul\":3235:3284   */\n      tag_106\n      jump\t// in\n    tag_185:\n        /* \"#utility.yul\":3219:3285   */\n      tag_105\n      jump\t// in\n    tag_184:\n        /* \"#utility.yul\":3210:3285   */\n      swap1\n      pop\n        /* \"#utility.yul\":3308:3314   */\n      dup3\n        /* \"#utility.yul\":3301:3306   */\n      dup2\n        /* \"#utility.yul\":3294:3315   */\n      mstore\n        /* \"#utility.yul\":3346:3350   */\n      0x20\n        /* \"#utility.yul\":3339:3344   */\n      dup2\n        /* \"#utility.yul\":3335:3351   */\n      add\n        /* \"#utility.yul\":3384:3387   */\n      dup5\n        /* \"#utility.yul\":3375:3381   */\n      dup5\n        /* \"#utility.yul\":3370:3373   */\n      dup5\n        /* \"#utility.yul\":3366:3382   */\n      add\n        /* \"#utility.yul\":3363:3388   */\n      gt\n        /* \"#utility.yul\":3360:3472   */\n      iszero\n      tag_186\n      jumpi\n        /* \"#utility.yul\":3391:3470   */\n      tag_187\n      tag_101\n      jump\t// in\n    tag_187:\n        /* \"#utility.yul\":3360:3472   */\n    tag_186:\n        /* \"#utility.yul\":3481:3535   */\n      tag_188\n        /* \"#utility.yul\":3528:3534   */\n      dup5\n        /* \"#utility.yul\":3523:3526   */\n      dup3\n        /* \"#utility.yul\":3518:3521   */\n      dup6\n        /* \"#utility.yul\":3481:3535   */\n      tag_107\n      jump\t// in\n    tag_188:\n        /* \"#utility.yul\":3200:3541   */\n      pop\n        /* \"#utility.yul\":3116:3541   */\n      swap4\n      swap3\n      pop\n      pop\n      pop\n      jump\t// out\n        /* \"#utility.yul\":3561:3901   */\n    tag_109:\n        /* \"#utility.yul\":3617:3622   */\n      0x00\n        /* \"#utility.yul\":3666:3669   */\n      dup3\n        /* \"#utility.yul\":3659:3663   */\n      0x1f\n        /* \"#utility.yul\":3651:3657   */\n      dup4\n        /* \"#utility.yul\":3647:3664   */\n      add\n        /* \"#utility.yul\":3643:3670   */\n      slt\n        /* \"#utility.yul\":3633:3755   */\n      tag_190\n      jumpi\n        /* \"#utility.yul\":3674:3753   */\n      tag_191\n      tag_97\n      jump\t// in\n    tag_191:\n        /* \"#utility.yul\":3633:3755   */\n    tag_190:\n        /* \"#utility.yul\":3791:3797   */\n      dup2\n        /* \"#utility.yul\":3778:3798   */\n      calldataload\n        /* \"#utility.yul\":3816:3895   */\n      tag_192\n        /* \"#utility.yul\":3891:3894   */\n      dup5\n        /* \"#utility.yul\":3883:3889   */\n      dup3\n        /* \"#utility.yul\":3876:3880   */\n      0x20\n        /* \"#utility.yul\":3868:3874   */\n      dup7\n        /* \"#utility.yul\":3864:3881   */\n      add\n        /* \"#utility.yul\":3816:3895   */\n      tag_108\n      jump\t// in\n    tag_192:\n        /* \"#utility.yul\":3807:3895   */\n      swap2\n      pop\n        /* \"#utility.yul\":3623:3901   */\n      pop\n        /* \"#utility.yul\":3561:3901   */\n      swap3\n      swap2\n      pop\n      pop\n      jump\t// out\n        /* \"#utility.yul\":3907:4416   */\n    tag_15:\n        /* \"#utility.yul\":3976:3982   */\n      0x00\n        /* \"#utility.yul\":4025:4027   */\n      0x20\n        /* \"#utility.yul\":4013:4022   */\n      dup3\n        /* \"#utility.yul\":4004:4011   */\n      dup5\n        /* \"#utility.yul\":4000:4023   */\n      sub\n        /* \"#utility.yul\":3996:4028   */\n      slt\n        /* \"#utility.yul\":3993:4112   */\n      iszero\n      tag_194\n      jumpi\n        /* \"#utility.yul\":4031:4110   */\n      tag_195\n      tag_95\n      jump\t// in\n    tag_195:\n        /* \"#utility.yul\":3993:4112   */\n    tag_194:\n        /* \"#utility.yul\":4179:4180   */\n      0x00\n        /* \"#utility.yul\":4168:4177   */\n      dup3\n        /* \"#utility.yul\":4164:4181   */\n      add\n        /* \"#utility.yul\":4151:4182   */\n      calldataload\n        /* \"#utility.yul\":4209:4227   */\n      0xffffffffffffffff\n        /* \"#utility.yul\":4201:4207   */\n      dup2\n        /* \"#utility.yul\":4198:4228   */\n      gt\n        /* \"#utility.yul\":4195:4312   */\n      iszero\n      tag_196\n      jumpi\n        /* \"#utility.yul\":4231:4310   */\n      tag_197\n      tag_96\n      jump\t// in\n    tag_197:\n        /* \"#utility.yul\":4195:4312   */\n    tag_196:\n        /* \"#utility.yul\":4336:4399   */\n      tag_198\n        /* \"#utility.yul\":4391:4398   */\n      dup5\n        /* \"#utility.yul\":4382:4388   */\n      dup3\n        /* \"#utility.yul\":4371:4380   */\n      dup6\n        /* \"#utility.yul\":4367:4389   */\n      add\n        /* \"#utility.yul\":4336:4399   */\n      tag_109\n      jump\t// in\n    tag_198:\n        /* \"#utility.yul\":4326:4399   */\n      swap2\n      pop\n        /* \"#utility.yul\":4122:4409   */\n      pop\n        /* \"#utility.yul\":3907:4416   */\n      swap3\n      swap2\n      pop\n      pop\n      jump\t// out\n        /* \"#utility.yul\":4422:4548   */\n    tag_110:\n        /* \"#utility.yul\":4459:4466   */\n      0x00\n        /* \"#utility.yul\":4499:4541   */\n      0xffffffffffffffffffffffffffffffffffffffff\n        /* \"#utility.yul\":4492:4497   */\n      dup3\n        /* \"#utility.yul\":4488:4542   */\n      and\n        /* \"#utility.yul\":4477:4542   */\n      swap1\n      pop\n        /* \"#utility.yul\":4422:4548   */\n      swap2\n      swap1\n      pop\n      jump\t// out\n        /* \"#utility.yul\":4554:4650   */\n    tag_111:\n        /* \"#utility.yul\":4591:4598   */\n      0x00\n        /* \"#utility.yul\":4620:4644   */\n      tag_201\n        /* \"#utility.yul\":4638:4643   */\n      dup3\n        /* \"#utility.yul\":4620:4644   */\n      tag_110\n      jump\t// in\n    tag_201:\n        /* \"#utility.yul\":4609:4644   */\n      swap1\n      pop\n        /* \"#utility.yul\":4554:4650   */\n      swap2\n      swap1\n      pop\n      jump\t// out\n        /* \"#utility.yul\":4656:4774   */\n    tag_112:\n        /* \"#utility.yul\":4743:4767   */\n      tag_203\n        /* \"#utility.yul\":4761:4766   */\n      dup2\n        /* \"#utility.yul\":4743:4767   */\n      tag_111\n      jump\t// in\n    tag_203:\n        /* \"#utility.yul\":4738:4741   */\n      dup3\n        /* \"#utility.yul\":4731:4768   */\n      mstore\n        /* \"#utility.yul\":4656:4774   */\n      pop\n      pop\n      jump\t// out\n        /* \"#utility.yul\":4780:5002   */\n    tag_23:\n        /* \"#utility.yul\":4873:4877   */\n      0x00\n        /* \"#utility.yul\":4911:4913   */\n      0x20\n        /* \"#utility.yul\":4900:4909   */\n      dup3\n        /* \"#utility.yul\":4896:4914   */\n      add\n        /* \"#utility.yul\":4888:4914   */\n      swap1\n      pop\n        /* \"#utility.yul\":4924:4995   */\n      tag_205\n        /* \"#utility.yul\":4992:4993   */\n      0x00\n        /* \"#utility.yul\":4981:4990   */\n      dup4\n        /* \"#utility.yul\":4977:4994   */\n      add\n        /* \"#utility.yul\":4968:4974   */\n      dup5\n        /* \"#utility.yul\":4924:4995   */\n      tag_112\n      jump\t// in\n    tag_205:\n        /* \"#utility.yul\":4780:5002   */\n      swap3\n      swap2\n      pop\n      pop\n      jump\t// out\n        /* \"#utility.yul\":5008:5085   */\n    tag_113:\n        /* \"#utility.yul\":5045:5052   */\n      0x00\n        /* \"#utility.yul\":5074:5079   */\n      dup2\n        /* \"#utility.yul\":5063:5079   */\n      swap1\n      pop\n        /* \"#utility.yul\":5008:5085   */\n      swap2\n      swap1\n      pop\n      jump\t// out\n        /* \"#utility.yul\":5091:5209   */\n    tag_114:\n        /* \"#utility.yul\":5178:5202   */\n      tag_208\n        /* \"#utility.yul\":5196:5201   */\n      dup2\n        /* \"#utility.yul\":5178:5202   */\n      tag_113\n      jump\t// in\n    tag_208:\n        /* \"#utility.yul\":5173:5176   */\n      dup3\n        /* \"#utility.yul\":5166:5203   */\n      mstore\n        /* \"#utility.yul\":5091:5209   */\n      pop\n      pop\n      jump\t// out\n        /* \"#utility.yul\":5215:5437   */\n    tag_27:\n        /* \"#utility.yul\":5308:5312   */\n      0x00\n        /* \"#utility.yul\":5346:5348   */\n      0x20\n        /* \"#utility.yul\":5335:5344   */\n      dup3\n        /* \"#utility.yul\":5331:5349   */\n      add\n        /* \"#utility.yul\":5323:5349   */\n      swap1\n      pop\n        /* \"#utility.yul\":5359:5430   */\n      tag_210\n        /* \"#utility.yul\":5427:5428   */\n      0x00\n        /* \"#utility.yul\":5416:5425   */\n      dup4\n        /* \"#utility.yul\":5412:5429   */\n      add\n        /* \"#utility.yul\":5403:5409   */\n      dup5\n        /* \"#utility.yul\":5359:5430   */\n      tag_114\n      jump\t// in\n    tag_210:\n        /* \"#utility.yul\":5215:5437   */\n      swap3\n      swap2\n      pop\n      pop\n      jump\t// out\n        /* \"#utility.yul\":5443:5591   */\n    tag_115:\n        /* \"#utility.yul\":5545:5556   */\n      0x00\n        /* \"#utility.yul\":5582:5585   */\n      dup2\n        /* \"#utility.yul\":5567:5585   */\n      swap1\n      pop\n        /* \"#utility.yul\":5443:5591   */\n      swap3\n      swap2\n      pop\n      pop\n      jump\t// out\n        /* \"#utility.yul\":5621:5951   */\n    tag_116:\n        /* \"#utility.yul\":5737:5740   */\n      0x00\n        /* \"#utility.yul\":5758:5847   */\n      tag_213\n        /* \"#utility.yul\":5840:5846   */\n      dup4\n        /* \"#utility.yul\":5835:5838   */\n      dup6\n        /* \"#utility.yul\":5758:5847   */\n      tag_115\n      jump\t// in\n    tag_213:\n        /* \"#utility.yul\":5751:5847   */\n      swap4\n      pop\n        /* \"#utility.yul\":5857:5913   */\n      tag_214\n        /* \"#utility.yul\":5906:5912   */\n      dup4\n        /* \"#utility.yul\":5901:5904   */\n      dup6\n        /* \"#utility.yul\":5894:5899   */\n      dup5\n        /* \"#utility.yul\":5857:5913   */\n      tag_107\n      jump\t// in\n    tag_214:\n        /* \"#utility.yul\":5938:5944   */\n      dup3\n        /* \"#utility.yul\":5933:5936   */\n      dup5\n        /* \"#utility.yul\":5929:5945   */\n      add\n        /* \"#utility.yul\":5922:5945   */\n      swap1\n      pop\n        /* \"#utility.yul\":5621:5951   */\n      swap4\n      swap3\n      pop\n      pop\n      pop\n      jump\t// out\n        /* \"#utility.yul\":5957:6252   */\n    tag_33:\n        /* \"#utility.yul\":6099:6102   */\n      0x00\n        /* \"#utility.yul\":6121:6226   */\n      tag_216\n        /* \"#utility.yul\":6222:6225   */\n      dup3\n        /* \"#utility.yul\":6213:6219   */\n      dup5\n        /* \"#utility.yul\":6205:6211   */\n      dup7\n        /* \"#utility.yul\":6121:6226   */\n      tag_116\n      jump\t// in\n    tag_216:\n        /* \"#utility.yul\":6114:6226   */\n      swap2\n      pop\n        /* \"#utility.yul\":6243:6246   */\n      dup2\n        /* \"#utility.yul\":6236:6246   */\n      swap1\n      pop\n        /* \"#utility.yul\":5957:6252   */\n      swap4\n      swap3\n      pop\n      pop\n      pop\n      jump\t// out\n        /* \"#utility.yul\":6258:6438   */\n    tag_117:\n        /* \"#utility.yul\":6306:6383   */\n      0x4e487b7100000000000000000000000000000000000000000000000000000000\n        /* \"#utility.yul\":6303:6304   */\n      0x00\n        /* \"#utility.yul\":6296:6384   */\n      mstore\n        /* \"#utility.yul\":6403:6407   */\n      0x22\n        /* \"#utility.yul\":6400:6401   */\n      0x04\n        /* \"#utility.yul\":6393:6408   */\n      mstore\n        /* \"#utility.yul\":6427:6431   */\n      0x24\n        /* \"#utility.yul\":6424:6425   */\n      0x00\n        /* \"#utility.yul\":6417:6432   */\n      revert\n        /* \"#utility.yul\":6444:6764   */\n    tag_35:\n        /* \"#utility.yul\":6488:6494   */\n      0x00\n        /* \"#utility.yul\":6525:6526   */\n      0x02\n        /* \"#utility.yul\":6519:6523   */\n      dup3\n        /* \"#utility.yul\":6515:6527   */\n      div\n        /* \"#utility.yul\":6505:6527   */\n      swap1\n      pop\n        /* \"#utility.yul\":6572:6573   */\n      0x01\n        /* \"#utility.yul\":6566:6570   */\n      dup3\n        /* \"#utility.yul\":6562:6574   */\n      and\n        /* \"#utility.yul\":6593:6611   */\n      dup1\n        /* \"#utility.yul\":6583:6664   */\n      tag_219\n      jumpi\n        /* \"#utility.yul\":6649:6653   */\n      0x7f\n        /* \"#utility.yul\":6641:6647   */\n      dup3\n        /* \"#utility.yul\":6637:6654   */\n      and\n        /* \"#utility.yul\":6627:6654   */\n      swap2\n      pop\n        /* \"#utility.yul\":6583:6664   */\n    tag_219:\n        /* \"#utility.yul\":6711:6713   */\n      0x20\n        /* \"#utility.yul\":6703:6709   */\n      dup3\n        /* \"#utility.yul\":6700:6714   */\n      lt\n        /* \"#utility.yul\":6680:6698   */\n      dup2\n        /* \"#utility.yul\":6677:6715   */\n      sub\n        /* \"#utility.yul\":6674:6758   */\n      tag_220\n      jumpi\n        /* \"#utility.yul\":6730:6748   */\n      tag_221\n      tag_117\n      jump\t// in\n    tag_221:\n        /* \"#utility.yul\":6674:6758   */\n    tag_220:\n        /* \"#utility.yul\":6495:6764   */\n      pop\n        /* \"#utility.yul\":6444:6764   */\n      swap2\n      swap1\n      pop\n      jump\t// out\n        /* \"#utility.yul\":6770:6939   */\n    tag_118:\n        /* \"#utility.yul\":6854:6865   */\n      0x00\n        /* \"#utility.yul\":6888:6894   */\n      dup3\n        /* \"#utility.yul\":6883:6886   */\n      dup3\n        /* \"#utility.yul\":6876:6895   */\n      mstore\n        /* \"#utility.yul\":6928:6932   */\n      0x20\n        /* \"#utility.yul\":6923:6926   */\n      dup3\n        /* \"#utility.yul\":6919:6933   */\n      add\n        /* \"#utility.yul\":6904:6933   */\n      swap1\n      pop\n        /* \"#utility.yul\":6770:6939   */\n      swap3\n      swap2\n      pop\n      pop\n      jump\t// out\n        /* \"#utility.yul\":6945:7118   */\n    tag_119:\n        /* \"#utility.yul\":7085:7110   */\n      0x5468697320626f6f6b20646f65736e2774206578697374000000000000000000\n        /* \"#utility.yul\":7081:7082   */\n      0x00\n        /* \"#utility.yul\":7073:7079   */\n      dup3\n        /* \"#utility.yul\":7069:7083   */\n      add\n        /* \"#utility.yul\":7062:7111   */\n      mstore\n        /* \"#utility.yul\":6945:7118   */\n      pop\n      jump\t// out\n        /* \"#utility.yul\":7124:7490   */\n    tag_120:\n        /* \"#utility.yul\":7266:7269   */\n      0x00\n        /* \"#utility.yul\":7287:7354   */\n      tag_225\n        /* \"#utility.yul\":7351:7353   */\n      0x17\n        /* \"#utility.yul\":7346:7349   */\n      dup4\n        /* \"#utility.yul\":7287:7354   */\n      tag_118\n      jump\t// in\n    tag_225:\n        /* \"#utility.yul\":7280:7354   */\n      swap2\n      pop\n        /* \"#utility.yul\":7363:7456   */\n      tag_226\n        /* \"#utility.yul\":7452:7455   */\n      dup3\n        /* \"#utility.yul\":7363:7456   */\n      tag_119\n      jump\t// in\n    tag_226:\n        /* \"#utility.yul\":7481:7483   */\n      0x20\n        /* \"#utility.yul\":7476:7479   */\n      dup3\n        /* \"#utility.yul\":7472:7484   */\n      add\n        /* \"#utility.yul\":7465:7484   */\n      swap1\n      pop\n        /* \"#utility.yul\":7124:7490   */\n      swap2\n      swap1\n      pop\n      jump\t// out\n        /* \"#utility.yul\":7496:7915   */\n    tag_38:\n        /* \"#utility.yul\":7662:7666   */\n      0x00\n        /* \"#utility.yul\":7700:7702   */\n      0x20\n        /* \"#utility.yul\":7689:7698   */\n      dup3\n        /* \"#utility.yul\":7685:7703   */\n      add\n        /* \"#utility.yul\":7677:7703   */\n      swap1\n      pop\n        /* \"#utility.yul\":7749:7758   */\n      dup2\n        /* \"#utility.yul\":7743:7747   */\n      dup2\n        /* \"#utility.yul\":7739:7759   */\n      sub\n        /* \"#utility.yul\":7735:7736   */\n      0x00\n        /* \"#utility.yul\":7724:7733   */\n      dup4\n        /* \"#utility.yul\":7720:7737   */\n      add\n        /* \"#utility.yul\":7713:7760   */\n      mstore\n        /* \"#utility.yul\":7777:7908   */\n      tag_228\n        /* \"#utility.yul\":7903:7907   */\n      dup2\n        /* \"#utility.yul\":7777:7908   */\n      tag_120\n      jump\t// in\n    tag_228:\n        /* \"#utility.yul\":7769:7908   */\n      swap1\n      pop\n        /* \"#utility.yul\":7496:7915   */\n      swap2\n      swap1\n      pop\n      jump\t// out\n        /* \"#utility.yul\":7921:8098   */\n    tag_121:\n        /* \"#utility.yul\":8061:8090   */\n      0x596f75206469646e277420626f72726f77207468697320626f6f6b0000000000\n        /* \"#utility.yul\":8057:8058   */\n      0x00\n        /* \"#utility.yul\":8049:8055   */\n      dup3\n        /* \"#utility.yul\":8045:8059   */\n      add\n        /* \"#utility.yul\":8038:8091   */\n      mstore\n        /* \"#utility.yul\":7921:8098   */\n      pop\n      jump\t// out\n        /* \"#utility.yul\":8104:8470   */\n    tag_122:\n        /* \"#utility.yul\":8246:8249   */\n      0x00\n        /* \"#utility.yul\":8267:8334   */\n      tag_231\n        /* \"#utility.yul\":8331:8333   */\n      0x1b\n        /* \"#utility.yul\":8326:8329   */\n      dup4\n        /* \"#utility.yul\":8267:8334   */\n      tag_118\n      jump\t// in\n    tag_231:\n        /* \"#utility.yul\":8260:8334   */\n      swap2\n      pop\n        /* \"#utility.yul\":8343:8436   */\n      tag_232\n        /* \"#utility.yul\":8432:8435   */\n      dup3\n        /* \"#utility.yul\":8343:8436   */\n      tag_121\n      jump\t// in\n    tag_232:\n        /* \"#utility.yul\":8461:8463   */\n      0x20\n        /* \"#utility.yul\":8456:8459   */\n      dup3\n        /* \"#utility.yul\":8452:8464   */\n      add\n        /* \"#utility.yul\":8445:8464   */\n      swap1\n      pop\n        /* \"#utility.yul\":8104:8470   */\n      swap2\n      swap1\n      pop\n      jump\t// out\n        /* \"#utility.yul\":8476:8895   */\n    tag_42:\n        /* \"#utility.yul\":8642:8646   */\n      0x00\n        /* \"#utility.yul\":8680:8682   */\n      0x20\n        /* \"#utility.yul\":8669:8678   */\n      dup3\n        /* \"#utility.yul\":8665:8683   */\n      add\n        /* \"#utility.yul\":8657:8683   */\n      swap1\n      pop\n        /* \"#utility.yul\":8729:8738   */\n      dup2\n        /* \"#utility.yul\":8723:8727   */\n      dup2\n        /* \"#utility.yul\":8719:8739   */\n      sub\n        /* \"#utility.yul\":8715:8716   */\n      0x00\n        /* \"#utility.yul\":8704:8713   */\n      dup4\n        /* \"#utility.yul\":8700:8717   */\n      add\n        /* \"#utility.yul\":8693:8740   */\n      mstore\n        /* \"#utility.yul\":8757:8888   */\n      tag_234\n        /* \"#utility.yul\":8883:8887   */\n      dup2\n        /* \"#utility.yul\":8757:8888   */\n      tag_122\n      jump\t// in\n    tag_234:\n        /* \"#utility.yul\":8749:8888   */\n      swap1\n      pop\n        /* \"#utility.yul\":8476:8895   */\n      swap2\n      swap1\n      pop\n      jump\t// out\n        /* \"#utility.yul\":8925:9242   */\n    tag_123:\n        /* \"#utility.yul\":9023:9026   */\n      0x00\n        /* \"#utility.yul\":9044:9115   */\n      tag_236\n        /* \"#utility.yul\":9108:9114   */\n      dup4\n        /* \"#utility.yul\":9103:9106   */\n      dup6\n        /* \"#utility.yul\":9044:9115   */\n      tag_118\n      jump\t// in\n    tag_236:\n        /* \"#utility.yul\":9037:9115   */\n      swap4\n      pop\n        /* \"#utility.yul\":9125:9181   */\n      tag_237\n        /* \"#utility.yul\":9174:9180   */\n      dup4\n        /* \"#utility.yul\":9169:9172   */\n      dup6\n        /* \"#utility.yul\":9162:9167   */\n      dup5\n        /* \"#utility.yul\":9125:9181   */\n      tag_107\n      jump\t// in\n    tag_237:\n        /* \"#utility.yul\":9206:9235   */\n      tag_238\n        /* \"#utility.yul\":9228:9234   */\n      dup4\n        /* \"#utility.yul\":9206:9235   */\n      tag_102\n      jump\t// in\n    tag_238:\n        /* \"#utility.yul\":9201:9204   */\n      dup5\n        /* \"#utility.yul\":9197:9236   */\n      add\n        /* \"#utility.yul\":9190:9236   */\n      swap1\n      pop\n        /* \"#utility.yul\":8925:9242   */\n      swap4\n      swap3\n      pop\n      pop\n      pop\n      jump\t// out\n        /* \"#utility.yul\":9248:9581   */\n    tag_46:\n        /* \"#utility.yul\":9371:9375   */\n      0x00\n        /* \"#utility.yul\":9409:9411   */\n      0x20\n        /* \"#utility.yul\":9398:9407   */\n      dup3\n        /* \"#utility.yul\":9394:9412   */\n      add\n        /* \"#utility.yul\":9386:9412   */\n      swap1\n      pop\n        /* \"#utility.yul\":9458:9467   */\n      dup2\n        /* \"#utility.yul\":9452:9456   */\n      dup2\n        /* \"#utility.yul\":9448:9468   */\n      sub\n        /* \"#utility.yul\":9444:9445   */\n      0x00\n        /* \"#utility.yul\":9433:9442   */\n      dup4\n        /* \"#utility.yul\":9429:9446   */\n      add\n        /* \"#utility.yul\":9422:9469   */\n      mstore\n        /* \"#utility.yul\":9486:9574   */\n      tag_240\n        /* \"#utility.yul\":9569:9573   */\n      dup2\n        /* \"#utility.yul\":9560:9566   */\n      dup5\n        /* \"#utility.yul\":9552:9558   */\n      dup7\n        /* \"#utility.yul\":9486:9574   */\n      tag_123\n      jump\t// in\n    tag_240:\n        /* \"#utility.yul\":9478:9574   */\n      swap1\n      pop\n        /* \"#utility.yul\":9248:9581   */\n      swap4\n      swap3\n      pop\n      pop\n      pop\n      jump\t// out\n        /* \"#utility.yul\":9587:9807   */\n    tag_124:\n        /* \"#utility.yul\":9727:9761   */\n      0x4f6e6c79206f776e65722063616e2063616c6c20746869732066756e6374696f\n        /* \"#utility.yul\":9723:9724   */\n      0x00\n        /* \"#utility.yul\":9715:9721   */\n      dup3\n        /* \"#utility.yul\":9711:9725   */\n      add\n        /* \"#utility.yul\":9704:9762   */\n      mstore\n        /* \"#utility.yul\":9796:9799   */\n      0x6e00000000000000000000000000000000000000000000000000000000000000\n        /* \"#utility.yul\":9791:9793   */\n      0x20\n        /* \"#utility.yul\":9783:9789   */\n      dup3\n        /* \"#utility.yul\":9779:9794   */\n      add\n        /* \"#utility.yul\":9772:9800   */\n      mstore\n        /* \"#utility.yul\":9587:9807   */\n      pop\n      jump\t// out\n        /* \"#utility.yul\":9813:10179   */\n    tag_125:\n        /* \"#utility.yul\":9955:9958   */\n      0x00\n        /* \"#utility.yul\":9976:10043   */\n      tag_243\n        /* \"#utility.yul\":10040:10042   */\n      0x21\n        /* \"#utility.yul\":10035:10038   */\n      dup4\n        /* \"#utility.yul\":9976:10043   */\n      tag_118\n      jump\t// in\n    tag_243:\n        /* \"#utility.yul\":9969:10043   */\n      swap2\n      pop\n        /* \"#utility.yul\":10052:10145   */\n      tag_244\n        /* \"#utility.yul\":10141:10144   */\n      dup3\n        /* \"#utility.yul\":10052:10145   */\n      tag_124\n      jump\t// in\n    tag_244:\n        /* \"#utility.yul\":10170:10172   */\n      0x40\n        /* \"#utility.yul\":10165:10168   */\n      dup3\n        /* \"#utility.yul\":10161:10173   */\n      add\n        /* \"#utility.yul\":10154:10173   */\n      swap1\n      pop\n        /* \"#utility.yul\":9813:10179   */\n      swap2\n      swap1\n      pop\n      jump\t// out\n        /* \"#utility.yul\":10185:10604   */\n    tag_50:\n        /* \"#utility.yul\":10351:10355   */\n      0x00\n        /* \"#utility.yul\":10389:10391   */\n      0x20\n        /* \"#utility.yul\":10378:10387   */\n      dup3\n        /* \"#utility.yul\":10374:10392   */\n      add\n        /* \"#utility.yul\":10366:10392   */\n      swap1\n      pop\n        /* \"#utility.yul\":10438:10447   */\n      dup2\n        /* \"#utility.yul\":10432:10436   */\n      dup2\n        /* \"#utility.yul\":10428:10448   */\n      sub\n        /* \"#utility.yul\":10424:10425   */\n      0x00\n        /* \"#utility.yul\":10413:10422   */\n      dup4\n        /* \"#utility.yul\":10409:10426   */\n      add\n        /* \"#utility.yul\":10402:10449   */\n      mstore\n        /* \"#utility.yul\":10466:10597   */\n      tag_246\n        /* \"#utility.yul\":10592:10596   */\n      dup2\n        /* \"#utility.yul\":10466:10597   */\n      tag_125\n      jump\t// in\n    tag_246:\n        /* \"#utility.yul\":10458:10597   */\n      swap1\n      pop\n        /* \"#utility.yul\":10185:10604   */\n      swap2\n      swap1\n      pop\n      jump\t// out\n        /* \"#utility.yul\":10610:10790   */\n    tag_126:\n        /* \"#utility.yul\":10658:10735   */\n      0x4e487b7100000000000000000000000000000000000000000000000000000000\n        /* \"#utility.yul\":10655:10656   */\n      0x00\n        /* \"#utility.yul\":10648:10736   */\n      mstore\n        /* \"#utility.yul\":10755:10759   */\n      0x11\n        /* \"#utility.yul\":10752:10753   */\n      0x04\n        /* \"#utility.yul\":10745:10760   */\n      mstore\n        /* \"#utility.yul\":10779:10783   */\n      0x24\n        /* \"#utility.yul\":10776:10777   */\n      0x00\n        /* \"#utility.yul\":10769:10784   */\n      revert\n        /* \"#utility.yul\":10796:11029   */\n    tag_53:\n        /* \"#utility.yul\":10835:10838   */\n      0x00\n        /* \"#utility.yul\":10858:10882   */\n      tag_249\n        /* \"#utility.yul\":10876:10881   */\n      dup3\n        /* \"#utility.yul\":10858:10882   */\n      tag_113\n      jump\t// in\n    tag_249:\n        /* \"#utility.yul\":10849:10882   */\n      swap2\n      pop\n        /* \"#utility.yul\":10904:10970   */\n      0xffffffffffffffffffffffffffffffffffffffffffffffffffffffffffffffff\n        /* \"#utility.yul\":10897:10902   */\n      dup3\n        /* \"#utility.yul\":10894:10971   */\n      sub\n        /* \"#utility.yul\":10891:10994   */\n      tag_250\n      jumpi\n        /* \"#utility.yul\":10974:10992   */\n      tag_251\n      tag_126\n      jump\t// in\n    tag_251:\n        /* \"#utility.yul\":10891:10994   */\n    tag_250:\n        /* \"#utility.yul\":11021:11022   */\n      0x01\n        /* \"#utility.yul\":11014:11019   */\n      dup3\n        /* \"#utility.yul\":11010:11023   */\n      add\n        /* \"#utility.yul\":11003:11023   */\n      swap1\n      pop\n        /* \"#utility.yul\":10796:11029   */\n      swap2\n      swap1\n      pop\n      jump\t// out\n        /* \"#utility.yul\":11035:11134   */\n    tag_127:\n        /* \"#utility.yul\":11087:11093   */\n      0x00\n        /* \"#utility.yul\":11121:11126   */\n      dup2\n        /* \"#utility.yul\":11115:11127   */\n      mload\n        /* \"#utility.yul\":11105:11127   */\n      swap1\n      pop\n        /* \"#utility.yul\":11035:11134   */\n      swap2\n      swap1\n      pop\n      jump\t// out\n        /* \"#utility.yul\":11140:11386   */\n    tag_128:\n        /* \"#utility.yul\":11221:11222   */\n      0x00\n        /* \"#utility.yul\":11231:11344   */\n    tag_254:\n        /* \"#utility.yul\":11245:11251   */\n      dup4\n        /* \"#utility.yul\":11242:11243   */\n      dup2\n        /* \"#utility.yul\":11239:11252   */\n      lt\n        /* \"#utility.yul\":11231:11344   */\n      iszero\n      tag_256\n      jumpi\n        /* \"#utility.yul\":11330:11331   */\n      dup1\n        /* \"#utility.yul\":11325:11328   */\n      dup3\n        /* \"#utility.yul\":11321:11332   */\n      add\n        /* \"#utility.yul\":11315:11333   */\n      mload\n        /* \"#utility.yul\":11311:11312   */\n      dup2\n        /* \"#utility.yul\":11306:11309   */\n      dup5\n        /* \"#utility.yul\":11302:11313   */\n      add\n        /* \"#utility.yul\":11295:11334   */\n      mstore\n        /* \"#utility.yul\":11267:11269   */\n      0x20\n        /* \"#utility.yul\":11264:11265   */\n      dup2\n        /* \"#utility.yul\":11260:11270   */\n      add\n        /* \"#utility.yul\":11255:11270   */\n      swap1\n      pop\n        /* \"#utility.yul\":11231:11344   */\n      jump(tag_254)\n    tag_256:\n        /* \"#utility.yul\":11378:11379   */\n      0x00\n        /* \"#utility.yul\":11369:11375   */\n      dup5\n        /* \"#utility.yul\":11364:11367   */\n      dup5\n        /* \"#utility.yul\":11360:11376   */\n      add\n        /* \"#utility.yul\":11353:11380   */\n      mstore\n        /* \"#utility.yul\":11202:11386   */\n      pop\n        /* \"#utility.yul\":11140:11386   */\n      pop\n      pop\n      pop\n      jump\t// out\n        /* \"#utility.yul\":11392:11782   */\n    tag_129:\n        /* \"#utility.yul\":11498:11501   */\n      0x00\n        /* \"#utility.yul\":11526:11565   */\n      tag_258\n        /* \"#utility.yul\":11559:11564   */\n      dup3\n        /* \"#utility.yul\":11526:11565   */\n      tag_127\n      jump\t// in\n    tag_258:\n        /* \"#utility.yul\":11581:11670   */\n      tag_259\n        /* \"#utility.yul\":11663:11669   */\n      dup2\n        /* \"#utility.yul\":11658:11661   */\n      dup6\n        /* \"#utility.yul\":11581:11670   */\n      tag_115\n      jump\t// in\n    tag_259:\n        /* \"#utility.yul\":11574:11670   */\n      swap4\n      pop\n        /* \"#utility.yul\":11679:11744   */\n      tag_260\n        /* \"#utility.yul\":11737:11743   */\n      dup2\n        /* \"#utility.yul\":11732:11735   */\n      dup6\n        /* \"#utility.yul\":11725:11729   */\n      0x20\n        /* \"#utility.yul\":11718:11723   */\n      dup7\n        /* \"#utility.yul\":11714:11730   */\n      add\n        /* \"#utility.yul\":11679:11744   */\n      tag_128\n      jump\t// in\n    tag_260:\n        /* \"#utility.yul\":11769:11775   */\n      dup1\n        /* \"#utility.yul\":11764:11767   */\n      dup5\n        /* \"#utility.yul\":11760:11776   */\n      add\n        /* \"#utility.yul\":11753:11776   */\n      swap2\n      pop\n        /* \"#utility.yul\":11502:11782   */\n      pop\n        /* \"#utility.yul\":11392:11782   */\n      swap3\n      swap2\n      pop\n      pop\n      jump\t// out\n        /* \"#utility.yul\":11788:12063   */\n    tag_55:\n        /* \"#utility.yul\":11920:11923   */\n      0x00\n        /* \"#utility.yul\":11942:12037   */\n      tag_262\n        /* \"#utility.yul\":12033:12036   */\n      dup3\n        /* \"#utility.yul\":12024:12030   */\n      dup5\n        /* \"#utility.yul\":11942:12037   */\n      tag_129\n      jump\t// in\n    tag_262:\n        /* \"#utility.yul\":11935:12037   */\n      swap2\n      pop\n        /* \"#utility.yul\":12054:12057   */\n      dup2\n        /* \"#utility.yul\":12047:12057   */\n      swap1\n      pop\n        /* \"#utility.yul\":11788:12063   */\n      swap3\n      swap2\n      pop\n      pop\n      jump\t// out\n        /* \"#utility.yul\":12069:12210   */\n    tag_130:\n        /* \"#utility.yul\":12118:12122   */\n      0x00\n        /* \"#utility.yul\":12141:12144   */\n      dup2\n        /* \"#utility.yul\":12133:12144   */\n      swap1\n      pop\n        /* \"#utility.yul\":12164:12167   */\n      dup2\n        /* \"#utility.yul\":12161:12162   */\n      0x00\n        /* \"#utility.yul\":12154:12168   */\n      mstore\n        /* \"#utility.yul\":12198:12202   */\n      0x20\n        /* \"#utility.yul\":12195:12196   */\n      0x00\n        /* \"#utility.yul\":12185:12203   */\n      keccak256\n        /* \"#utility.yul\":12177:12203   */\n      swap1\n      pop\n        /* \"#utility.yul\":12069:12210   */\n      swap2\n      swap1\n      pop\n      jump\t// out\n        /* \"#utility.yul\":12216:12309   */\n    tag_131:\n        /* \"#utility.yul\":12253:12259   */\n      0x00\n        /* \"#utility.yul\":12300:12302   */\n      0x20\n        /* \"#utility.yul\":12295:12297   */\n      0x1f\n        /* \"#utility.yul\":12288:12293   */\n      dup4\n        /* \"#utility.yul\":12284:12298   */\n      add\n        /* \"#utility.yul\":12280:12303   */\n      div\n        /* \"#utility.yul\":12270:12303   */\n      swap1\n      pop\n        /* \"#utility.yul\":12216:12309   */\n      swap2\n      swap1\n      pop\n      jump\t// out\n        /* \"#utility.yul\":12315:12422   */\n    tag_132:\n        /* \"#utility.yul\":12359:12367   */\n      0x00\n        /* \"#utility.yul\":12409:12414   */\n      dup3\n        /* \"#utility.yul\":12403:12407   */\n      dup3\n        /* \"#utility.yul\":12399:12415   */\n      shl\n        /* \"#utility.yul\":12378:12415   */\n      swap1\n      pop\n        /* \"#utility.yul\":12315:12422   */\n      swap3\n      swap2\n      pop\n      pop\n      jump\t// out\n        /* \"#utility.yul\":12428:12821   */\n    tag_133:\n        /* \"#utility.yul\":12497:12503   */\n      0x00\n        /* \"#utility.yul\":12547:12548   */\n      0x08\n        /* \"#utility.yul\":12535:12545   */\n      dup4\n        /* \"#utility.yul\":12531:12549   */\n      mul\n        /* \"#utility.yul\":12570:12667   */\n      tag_267\n        /* \"#utility.yul\":12600:12666   */\n      0xffffffffffffffffffffffffffffffffffffffffffffffffffffffffffffffff\n        /* \"#utility.yul\":12589:12598   */\n      dup3\n        /* \"#utility.yul\":12570:12667   */\n      tag_132\n      jump\t// in\n    tag_267:\n        /* \"#utility.yul\":12688:12727   */\n      tag_268\n        /* \"#utility.yul\":12718:12726   */\n      dup7\n        /* \"#utility.yul\":12707:12716   */\n      dup4\n        /* \"#utility.yul\":12688:12727   */\n      tag_132\n      jump\t// in\n    tag_268:\n        /* \"#utility.yul\":12676:12727   */\n      swap6\n      pop\n        /* \"#utility.yul\":12760:12764   */\n      dup1\n        /* \"#utility.yul\":12756:12765   */\n      not\n        /* \"#utility.yul\":12749:12754   */\n      dup5\n        /* \"#utility.yul\":12745:12766   */\n      and\n        /* \"#utility.yul\":12736:12766   */\n      swap4\n      pop\n        /* \"#utility.yul\":12809:12813   */\n      dup1\n        /* \"#utility.yul\":12799:12807   */\n      dup7\n        /* \"#utility.yul\":12795:12814   */\n      and\n        /* \"#utility.yul\":12788:12793   */\n      dup5\n        /* \"#utility.yul\":12785:12815   */\n      or\n        /* \"#utility.yul\":12775:12815   */\n      swap3\n      pop\n        /* \"#utility.yul\":12504:12821   */\n      pop\n      pop\n        /* \"#utility.yul\":12428:12821   */\n      swap4\n      swap3\n      pop\n      pop\n      pop\n      jump\t// out\n        /* \"#utility.yul\":12827:12887   */\n    tag_134:\n        /* \"#utility.yul\":12855:12858   */\n      0x00\n        /* \"#utility.yul\":12876:12881   */\n      dup2\n        /* \"#utility.yul\":12869:12881   */\n      swap1\n      pop\n        /* \"#utility.yul\":12827:12887   */\n      swap2\n      swap1\n      pop\n      jump\t// out\n        /* \"#utility.yul\":12893:13035   */\n    tag_135:\n        /* \"#utility.yul\":12943:12952   */\n      0x00\n        /* \"#utility.yul\":12976:13029   */\n      tag_271\n        /* \"#utility.yul\":12994:13028   */\n      tag_272\n        /* \"#utility.yul\":13003:13027   */\n      tag_273\n        /* \"#utility.yul\":13021:13026   */\n      dup5\n        /* \"#utility.yul\":13003:13027   */\n      tag_113\n      jump\t// in\n    tag_273:\n        /* \"#utility.yul\":12994:13028   */\n      tag_134\n      jump\t// in\n    tag_272:\n        /* \"#utility.yul\":12976:13029   */\n      tag_113\n      jump\t// in\n    tag_271:\n        /* \"#utility.yul\":12963:13029   */\n      swap1\n      pop\n        /* \"#utility.yul\":12893:13035   */\n      swap2\n      swap1\n      pop\n      jump\t// out\n        /* \"#utility.yul\":13041:13116   */\n    tag_136:\n        /* \"#utility.yul\":13084:13087   */\n      0x00\n        /* \"#utility.yul\":13105:13110   */\n      dup2\n        /* \"#utility.yul\":13098:13110   */\n      swap1\n      pop\n        /* \"#utility.yul\":13041:13116   */\n      swap2\n      swap1\n      pop\n      jump\t// out\n        /* \"#utility.yul\":13122:13391   */\n    tag_137:\n        /* \"#utility.yul\":13232:13271   */\n      tag_276\n        /* \"#utility.yul\":13263:13270   */\n      dup4\n        /* \"#utility.yul\":13232:13271   */\n      tag_135\n      jump\t// in\n    tag_276:\n        /* \"#utility.yul\":13293:13384   */\n      tag_277\n        /* \"#utility.yul\":13342:13383   */\n      tag_278\n        /* \"#utility.yul\":13366:13382   */\n      dup3\n        /* \"#utility.yul\":13342:13383   */\n      tag_136\n      jump\t// in\n    tag_278:\n        /* \"#utility.yul\":13334:13340   */\n      dup5\n        /* \"#utility.yul\":13327:13331   */\n      dup5\n        /* \"#utility.yul\":13321:13332   */\n      sload\n        /* \"#utility.yul\":13293:13384   */\n      tag_133\n      jump\t// in\n    tag_277:\n        /* \"#utility.yul\":13287:13291   */\n      dup3\n        /* \"#utility.yul\":13280:13385   */\n      sstore\n        /* \"#utility.yul\":13198:13391   */\n      pop\n        /* \"#utility.yul\":13122:13391   */\n      pop\n      pop\n      pop\n      jump\t// out\n        /* \"#utility.yul\":13397:13470   */\n    tag_138:\n        /* \"#utility.yul\":13442:13445   */\n      0x00\n        /* \"#utility.yul\":13397:13470   */\n      swap1\n      jump\t// out\n        /* \"#utility.yul\":13476:13665   */\n    tag_139:\n        /* \"#utility.yul\":13553:13585   */\n      tag_281\n      tag_138\n      jump\t// in\n    tag_281:\n        /* \"#utility.yul\":13594:13659   */\n      tag_282\n        /* \"#utility.yul\":13652:13658   */\n      dup2\n        /* \"#utility.yul\":13644:13650   */\n      dup5\n        /* \"#utility.yul\":13638:13642   */\n      dup5\n        /* \"#utility.yul\":13594:13659   */\n      tag_137\n      jump\t// in\n    tag_282:\n        /* \"#utility.yul\":13529:13665   */\n      pop\n        /* \"#utility.yul\":13476:13665   */\n      pop\n      pop\n      jump\t// out\n        /* \"#utility.yul\":13671:13857   */\n    tag_140:\n        /* \"#utility.yul\":13731:13851   */\n    tag_284:\n        /* \"#utility.yul\":13748:13751   */\n      dup2\n        /* \"#utility.yul\":13741:13746   */\n      dup2\n        /* \"#utility.yul\":13738:13752   */\n      lt\n        /* \"#utility.yul\":13731:13851   */\n      iszero\n      tag_286\n      jumpi\n        /* \"#utility.yul\":13802:13841   */\n      tag_287\n        /* \"#utility.yul\":13839:13840   */\n      0x00\n        /* \"#utility.yul\":13832:13837   */\n      dup3\n        /* \"#utility.yul\":13802:13841   */\n      tag_139\n      jump\t// in\n    tag_287:\n        /* \"#utility.yul\":13775:13776   */\n      0x01\n        /* \"#utility.yul\":13768:13773   */\n      dup2\n        /* \"#utility.yul\":13764:13777   */\n      add\n        /* \"#utility.yul\":13755:13777   */\n      swap1\n      pop\n        /* \"#utility.yul\":13731:13851   */\n      jump(tag_284)\n    tag_286:\n        /* \"#utility.yul\":13671:13857   */\n      pop\n      pop\n      jump\t// out\n        /* \"#utility.yul\":13863:14406   */\n    tag_141:\n        /* \"#utility.yul\":13964:13966   */\n      0x1f\n        /* \"#utility.yul\":13959:13962   */\n      dup3\n        /* \"#utility.yul\":13956:13967   */\n      gt\n        /* \"#utility.yul\":13953:14399   */\n      iszero\n      tag_289\n      jumpi\n        /* \"#utility.yul\":13998:14036   */\n      tag_290\n        /* \"#utility.yul\":14030:14035   */\n      dup2\n        /* \"#utility.yul\":13998:14036   */\n      tag_130\n      jump\t// in\n    tag_290:\n        /* \"#utility.yul\":14082:14111   */\n      tag_291\n        /* \"#utility.yul\":14100:14110   */\n      dup5\n        /* \"#utility.yul\":14082:14111   */\n      tag_131\n      jump\t// in\n    tag_291:\n        /* \"#utility.yul\":14072:14080   */\n      dup2\n        /* \"#utility.yul\":14068:14112   */\n      add\n        /* \"#utility.yul\":14265:14267   */\n      0x20\n        /* \"#utility.yul\":14253:14263   */\n      dup6\n        /* \"#utility.yul\":14250:14268   */\n      lt\n        /* \"#utility.yul\":14247:14296   */\n      iszero\n      tag_292\n      jumpi\n        /* \"#utility.yul\":14286:14294   */\n      dup2\n        /* \"#utility.yul\":14271:14294   */\n      swap1\n      pop\n        /* \"#utility.yul\":14247:14296   */\n    tag_292:\n        /* \"#utility.yul\":14309:14389   */\n      tag_293\n        /* \"#utility.yul\":14365:14387   */\n      tag_294\n        /* \"#utility.yul\":14383:14386   */\n      dup6\n        /* \"#utility.yul\":14365:14387   */\n      tag_131\n      jump\t// in\n    tag_294:\n        /* \"#utility.yul\":14355:14363   */\n      dup4\n        /* \"#utility.yul\":14351:14388   */\n      add\n        /* \"#utility.yul\":14338:14349   */\n      dup3\n        /* \"#utility.yul\":14309:14389   */\n      tag_140\n      jump\t// in\n    tag_293:\n        /* \"#utility.yul\":13968:14399   */\n      pop\n      pop\n        /* \"#utility.yul\":13953:14399   */\n    tag_289:\n        /* \"#utility.yul\":13863:14406   */\n      pop\n      pop\n      pop\n      jump\t// out\n        /* \"#utility.yul\":14412:14529   */\n    tag_142:\n        /* \"#utility.yul\":14466:14474   */\n      0x00\n        /* \"#utility.yul\":14516:14521   */\n      dup3\n        /* \"#utility.yul\":14510:14514   */\n      dup3\n        /* \"#utility.yul\":14506:14522   */\n      shr\n        /* \"#utility.yul\":14485:14522   */\n      swap1\n      pop\n        /* \"#utility.yul\":14412:14529   */\n      swap3\n      swap2\n      pop\n      pop\n      jump\t// out\n        /* \"#utility.yul\":14535:14704   */\n    tag_143:\n        /* \"#utility.yul\":14579:14585   */\n      0x00\n        /* \"#utility.yul\":14612:14663   */\n      tag_297\n        /* \"#utility.yul\":14660:14661   */\n      0x00\n        /* \"#utility.yul\":14656:14662   */\n      not\n        /* \"#utility.yul\":14648:14653   */\n      dup5\n        /* \"#utility.yul\":14645:14646   */\n      0x08\n        /* \"#utility.yul\":14641:14654   */\n      mul\n        /* \"#utility.yul\":14612:14663   */\n      tag_142\n      jump\t// in\n    tag_297:\n        /* \"#utility.yul\":14608:14664   */\n      not\n        /* \"#utility.yul\":14693:14697   */\n      dup1\n        /* \"#utility.yul\":14687:14691   */\n      dup4\n        /* \"#utility.yul\":14683:14698   */\n      and\n        /* \"#utility.yul\":14673:14698   */\n      swap2\n      pop\n        /* \"#utility.yul\":14586:14704   */\n      pop\n        /* \"#utility.yul\":14535:14704   */\n      swap3\n      swap2\n      pop\n      pop\n      jump\t// out\n        /* \"#utility.yul\":14709:15004   */\n    tag_144:\n        /* \"#utility.yul\":14785:14789   */\n      0x00\n        /* \"#utility.yul\":14931:14960   */\n      tag_299\n        /* \"#utility.yul\":14956:14959   */\n      dup4\n        /* \"#utility.yul\":14950:14954   */\n      dup4\n        /* \"#utility.yul\":14931:14960   */\n      tag_143\n      jump\t// in\n    tag_299:\n        /* \"#utility.yul\":14923:14960   */\n      swap2\n      pop\n        /* \"#utility.yul\":14993:14996   */\n      dup3\n        /* \"#utility.yul\":14990:14991   */\n      0x02\n        /* \"#utility.yul\":14986:14997   */\n      mul\n        /* \"#utility.yul\":14980:14984   */\n      dup3\n        /* \"#utility.yul\":14977:14998   */\n      or\n        /* \"#utility.yul\":14969:14998   */\n      swap1\n      pop\n        /* \"#utility.yul\":14709:15004   */\n      swap3\n      swap2\n      pop\n      pop\n      jump\t// out\n        /* \"#utility.yul\":15009:16404   */\n    tag_57:\n        /* \"#utility.yul\":15126:15163   */\n      tag_301\n        /* \"#utility.yul\":15159:15162   */\n      dup3\n        /* \"#utility.yul\":15126:15163   */\n      tag_127\n      jump\t// in\n    tag_301:\n        /* \"#utility.yul\":15228:15246   */\n      0xffffffffffffffff\n        /* \"#utility.yul\":15220:15226   */\n      dup2\n        /* \"#utility.yul\":15217:15247   */\n      gt\n        /* \"#utility.yul\":15214:15270   */\n      iszero\n      tag_302\n      jumpi\n        /* \"#utility.yul\":15250:15268   */\n      tag_303\n      tag_103\n      jump\t// in\n    tag_303:\n        /* \"#utility.yul\":15214:15270   */\n    tag_302:\n        /* \"#utility.yul\":15294:15332   */\n      tag_304\n        /* \"#utility.yul\":15326:15330   */\n      dup3\n        /* \"#utility.yul\":15320:15331   */\n      sload\n        /* \"#utility.yul\":15294:15332   */\n      tag_35\n      jump\t// in\n    tag_304:\n        /* \"#utility.yul\":15379:15446   */\n      tag_305\n        /* \"#utility.yul\":15439:15445   */\n      dup3\n        /* \"#utility.yul\":15431:15437   */\n      dup3\n        /* \"#utility.yul\":15425:15429   */\n      dup6\n        /* \"#utility.yul\":15379:15446   */\n      tag_141\n      jump\t// in\n    tag_305:\n        /* \"#utility.yul\":15473:15474   */\n      0x00\n        /* \"#utility.yul\":15497:15501   */\n      0x20\n        /* \"#utility.yul\":15484:15501   */\n      swap1\n      pop\n        /* \"#utility.yul\":15529:15531   */\n      0x1f\n        /* \"#utility.yul\":15521:15527   */\n      dup4\n        /* \"#utility.yul\":15518:15532   */\n      gt\n        /* \"#utility.yul\":15546:15547   */\n      0x01\n        /* \"#utility.yul\":15541:16159   */\n      dup2\n      eq\n      tag_307\n      jumpi\n        /* \"#utility.yul\":16203:16204   */\n      0x00\n        /* \"#utility.yul\":16220:16226   */\n      dup5\n        /* \"#utility.yul\":16217:16294   */\n      iszero\n      tag_308\n      jumpi\n        /* \"#utility.yul\":16269:16278   */\n      dup3\n        /* \"#utility.yul\":16264:16267   */\n      dup8\n        /* \"#utility.yul\":16260:16279   */\n      add\n        /* \"#utility.yul\":16254:16280   */\n      mload\n        /* \"#utility.yul\":16245:16280   */\n      swap1\n      pop\n        /* \"#utility.yul\":16217:16294   */\n    tag_308:\n        /* \"#utility.yul\":16320:16387   */\n      tag_309\n        /* \"#utility.yul\":16380:16386   */\n      dup6\n        /* \"#utility.yul\":16373:16378   */\n      dup3\n        /* \"#utility.yul\":16320:16387   */\n      tag_144\n      jump\t// in\n    tag_309:\n        /* \"#utility.yul\":16314:16318   */\n      dup7\n        /* \"#utility.yul\":16307:16388   */\n      sstore\n        /* \"#utility.yul\":16176:16398   */\n      pop\n        /* \"#utility.yul\":15511:16398   */\n      jump(tag_306)\n        /* \"#utility.yul\":15541:16159   */\n    tag_307:\n        /* \"#utility.yul\":15593:15597   */\n      0x1f\n        /* \"#utility.yul\":15589:15598   */\n      not\n        /* \"#utility.yul\":15581:15587   */\n      dup5\n        /* \"#utility.yul\":15577:15599   */\n      and\n        /* \"#utility.yul\":15627:15664   */\n      tag_310\n        /* \"#utility.yul\":15659:15663   */\n      dup7\n        /* \"#utility.yul\":15627:15664   */\n      tag_130\n      jump\t// in\n    tag_310:\n        /* \"#utility.yul\":15686:15687   */\n      0x00\n        /* \"#utility.yul\":15700:15908   */\n    tag_311:\n        /* \"#utility.yul\":15714:15721   */\n      dup3\n        /* \"#utility.yul\":15711:15712   */\n      dup2\n        /* \"#utility.yul\":15708:15722   */\n      lt\n        /* \"#utility.yul\":15700:15908   */\n      iszero\n      tag_313\n      jumpi\n        /* \"#utility.yul\":15793:15802   */\n      dup5\n        /* \"#utility.yul\":15788:15791   */\n      dup10\n        /* \"#utility.yul\":15784:15803   */\n      add\n        /* \"#utility.yul\":15778:15804   */\n      mload\n        /* \"#utility.yul\":15770:15776   */\n      dup3\n        /* \"#utility.yul\":15763:15805   */\n      sstore\n        /* \"#utility.yul\":15844:15845   */\n      0x01\n        /* \"#utility.yul\":15836:15842   */\n      dup3\n        /* \"#utility.yul\":15832:15846   */\n      add\n        /* \"#utility.yul\":15822:15846   */\n      swap2\n      pop\n        /* \"#utility.yul\":15891:15893   */\n      0x20\n        /* \"#utility.yul\":15880:15889   */\n      dup6\n        /* \"#utility.yul\":15876:15894   */\n      add\n        /* \"#utility.yul\":15863:15894   */\n      swap5\n      pop\n        /* \"#utility.yul\":15737:15741   */\n      0x20\n        /* \"#utility.yul\":15734:15735   */\n      dup2\n        /* \"#utility.yul\":15730:15742   */\n      add\n        /* \"#utility.yul\":15725:15742   */\n      swap1\n      pop\n        /* \"#utility.yul\":15700:15908   */\n      jump(tag_311)\n    tag_313:\n        /* \"#utility.yul\":15936:15942   */\n      dup7\n        /* \"#utility.yul\":15927:15934   */\n      dup4\n        /* \"#utility.yul\":15924:15943   */\n      lt\n        /* \"#utility.yul\":15921:16100   */\n      iszero\n      tag_314\n      jumpi\n        /* \"#utility.yul\":15994:16003   */\n      dup5\n        /* \"#utility.yul\":15989:15992   */\n      dup10\n        /* \"#utility.yul\":15985:16004   */\n      add\n        /* \"#utility.yul\":15979:16005   */\n      mload\n        /* \"#utility.yul\":16037:16085   */\n      tag_315\n        /* \"#utility.yul\":16079:16083   */\n      0x1f\n        /* \"#utility.yul\":16071:16077   */\n      dup10\n        /* \"#utility.yul\":16067:16084   */\n      and\n        /* \"#utility.yul\":16056:16065   */\n      dup3\n        /* \"#utility.yul\":16037:16085   */\n      tag_143\n      jump\t// in\n    tag_315:\n        /* \"#utility.yul\":16029:16035   */\n      dup4\n        /* \"#utility.yul\":16022:16086   */\n      sstore\n        /* \"#utility.yul\":15944:16100   */\n      pop\n        /* \"#utility.yul\":15921:16100   */\n    tag_314:\n        /* \"#utility.yul\":16146:16147   */\n      0x01\n        /* \"#utility.yul\":16142:16143   */\n      0x02\n        /* \"#utility.yul\":16134:16140   */\n      dup9\n        /* \"#utility.yul\":16130:16144   */\n      mul\n        /* \"#utility.yul\":16126:16148   */\n      add\n        /* \"#utility.yul\":16120:16124   */\n      dup9\n        /* \"#utility.yul\":16113:16149   */\n      sstore\n        /* \"#utility.yul\":15548:16159   */\n      pop\n      pop\n      pop\n        /* \"#utility.yul\":15511:16398   */\n    tag_306:\n      pop\n        /* \"#utility.yul\":15101:16404   */\n      pop\n      pop\n      pop\n        /* \"#utility.yul\":15009:16404   */\n      pop\n      pop\n      jump\t// out\n        /* \"#utility.yul\":16410:16787   */\n    tag_145:\n        /* \"#utility.yul\":16498:16501   */\n      0x00\n        /* \"#utility.yul\":16526:16565   */\n      tag_317\n        /* \"#utility.yul\":16559:16564   */\n      dup3\n        /* \"#utility.yul\":16526:16565   */\n      tag_127\n      jump\t// in\n    tag_317:\n        /* \"#utility.yul\":16581:16652   */\n      tag_318\n        /* \"#utility.yul\":16645:16651   */\n      dup2\n        /* \"#utility.yul\":16640:16643   */\n      dup6\n        /* \"#utility.yul\":16581:16652   */\n      tag_118\n      jump\t// in\n    tag_318:\n        /* \"#utility.yul\":16574:16652   */\n      swap4\n      pop\n        /* \"#utility.yul\":16661:16726   */\n      tag_319\n        /* \"#utility.yul\":16719:16725   */\n      dup2\n        /* \"#utility.yul\":16714:16717   */\n      dup6\n        /* \"#utility.yul\":16707:16711   */\n      0x20\n        /* \"#utility.yul\":16700:16705   */\n      dup7\n        /* \"#utility.yul\":16696:16712   */\n      add\n        /* \"#utility.yul\":16661:16726   */\n      tag_128\n      jump\t// in\n    tag_319:\n        /* \"#utility.yul\":16751:16780   */\n      tag_320\n        /* \"#utility.yul\":16773:16779   */\n      dup2\n        /* \"#utility.yul\":16751:16780   */\n      tag_102\n      jump\t// in\n    tag_320:\n        /* \"#utility.yul\":16746:16749   */\n      dup5\n        /* \"#utility.yul\":16742:16781   */\n      add\n        /* \"#utility.yul\":16735:16781   */\n      swap2\n      pop\n        /* \"#utility.yul\":16502:16787   */\n      pop\n        /* \"#utility.yul\":16410:16787   */\n      swap3\n      swap2\n      pop\n      pop\n      jump\t// out\n        /* \"#utility.yul\":16793:17106   */\n    tag_59:\n        /* \"#utility.yul\":16906:16910   */\n      0x00\n        /* \"#utility.yul\":16944:16946   */\n      0x20\n        /* \"#utility.yul\":16933:16942   */\n      dup3\n        /* \"#utility.yul\":16929:16947   */\n      add\n        /* \"#utility.yul\":16921:16947   */\n      swap1\n      pop\n        /* \"#utility.yul\":16993:17002   */\n      dup2\n        /* \"#utility.yul\":16987:16991   */\n      dup2\n        /* \"#utility.yul\":16983:17003   */\n      sub\n        /* \"#utility.yul\":16979:16980   */\n      0x00\n        /* \"#utility.yul\":16968:16977   */\n      dup4\n        /* \"#utility.yul\":16964:16981   */\n      add\n        /* \"#utility.yul\":16957:17004   */\n      mstore\n        /* \"#utility.yul\":17021:17099   */\n      tag_322\n        /* \"#utility.yul\":17094:17098   */\n      dup2\n        /* \"#utility.yul\":17085:17091   */\n      dup5\n        /* \"#utility.yul\":17021:17099   */\n      tag_145\n      jump\t// in\n    tag_322:\n        /* \"#utility.yul\":17013:17099   */\n      swap1\n      pop\n        /* \"#utility.yul\":16793:17106   */\n      swap3\n      swap2\n      pop\n      pop\n      jump\t// out\n        /* \"#utility.yul\":17112:17283   */\n    tag_69:\n        /* \"#utility.yul\":17151:17154   */\n      0x00\n        /* \"#utility.yul\":17174:17198   */\n      tag_324\n        /* \"#utility.yul\":17192:17197   */\n      dup3\n        /* \"#utility.yul\":17174:17198   */\n      tag_113\n      jump\t// in\n    tag_324:\n        /* \"#utility.yul\":17165:17198   */\n      swap2\n      pop\n        /* \"#utility.yul\":17220:17224   */\n      0x00\n        /* \"#utility.yul\":17213:17218   */\n      dup3\n        /* \"#utility.yul\":17210:17225   */\n      sub\n        /* \"#utility.yul\":17207:17248   */\n      tag_325\n      jumpi\n        /* \"#utility.yul\":17228:17246   */\n      tag_326\n      tag_126\n      jump\t// in\n    tag_326:\n        /* \"#utility.yul\":17207:17248   */\n    tag_325:\n        /* \"#utility.yul\":17275:17276   */\n      0x01\n        /* \"#utility.yul\":17268:17273   */\n      dup3\n        /* \"#utility.yul\":17264:17277   */\n      sub\n        /* \"#utility.yul\":17257:17277   */\n      swap1\n      pop\n        /* \"#utility.yul\":17112:17283   */\n      swap2\n      swap1\n      pop\n      jump\t// out\n        /* \"#utility.yul\":17289:17516   */\n    tag_146:\n        /* \"#utility.yul\":17429:17463   */\n      0x5468697320626f6f6b206973206e6f7420617661696c61626c6520666f722062\n        /* \"#utility.yul\":17425:17426   */\n      0x00\n        /* \"#utility.yul\":17417:17423   */\n      dup3\n        /* \"#utility.yul\":17413:17427   */\n      add\n        /* \"#utility.yul\":17406:17464   */\n      mstore\n        /* \"#utility.yul\":17498:17508   */\n      0x6f72726f77696e67000000000000000000000000000000000000000000000000\n        /* \"#utility.yul\":17493:17495   */\n      0x20\n        /* \"#utility.yul\":17485:17491   */\n      dup3\n        /* \"#utility.yul\":17481:17496   */\n      add\n        /* \"#utility.yul\":17474:17509   */\n      mstore\n        /* \"#utility.yul\":17289:17516   */\n      pop\n      jump\t// out\n        /* \"#utility.yul\":17522:17888   */\n    tag_147:\n        /* \"#utility.yul\":17664:17667   */\n      0x00\n        /* \"#utility.yul\":17685:17752   */\n      tag_329\n        /* \"#utility.yul\":17749:17751   */\n      0x28\n        /* \"#utility.yul\":17744:17747   */\n      dup4\n        /* \"#utility.yul\":17685:17752   */\n      tag_118\n      jump\t// in\n    tag_329:\n        /* \"#utility.yul\":17678:17752   */\n      swap2\n      pop\n        /* \"#utility.yul\":17761:17854   */\n      tag_330\n        /* \"#utility.yul\":17850:17853   */\n      dup3\n        /* \"#utility.yul\":17761:17854   */\n      tag_146\n      jump\t// in\n    tag_330:\n        /* \"#utility.yul\":17879:17881   */\n      0x40\n        /* \"#utility.yul\":17874:17877   */\n      dup3\n        /* \"#utility.yul\":17870:17882   */\n      add\n        /* \"#utility.yul\":17863:17882   */\n      swap1\n      pop\n        /* \"#utility.yul\":17522:17888   */\n      swap2\n      swap1\n      pop\n      jump\t// out\n        /* \"#utility.yul\":17894:18313   */\n    tag_82:\n        /* \"#utility.yul\":18060:18064   */\n      0x00\n        /* \"#utility.yul\":18098:18100   */\n      0x20\n        /* \"#utility.yul\":18087:18096   */\n      dup3\n        /* \"#utility.yul\":18083:18101   */\n      add\n        /* \"#utility.yul\":18075:18101   */\n      swap1\n      pop\n        /* \"#utility.yul\":18147:18156   */\n      dup2\n        /* \"#utility.yul\":18141:18145   */\n      dup2\n        /* \"#utility.yul\":18137:18157   */\n      sub\n        /* \"#utility.yul\":18133:18134   */\n      0x00\n        /* \"#utility.yul\":18122:18131   */\n      dup4\n        /* \"#utility.yul\":18118:18135   */\n      add\n        /* \"#utility.yul\":18111:18158   */\n      mstore\n        /* \"#utility.yul\":18175:18306   */\n      tag_332\n        /* \"#utility.yul\":18301:18305   */\n      dup2\n        /* \"#utility.yul\":18175:18306   */\n      tag_147\n      jump\t// in\n    tag_332:\n        /* \"#utility.yul\":18167:18306   */\n      swap1\n      pop\n        /* \"#utility.yul\":17894:18313   */\n      swap2\n      swap1\n      pop\n      jump\t// out\n        /* \"#utility.yul\":18319:18762   */\n    tag_86:\n        /* \"#utility.yul\":18470:18474   */\n      0x00\n        /* \"#utility.yul\":18508:18510   */\n      0x40\n        /* \"#utility.yul\":18497:18506   */\n      dup3\n        /* \"#utility.yul\":18493:18511   */\n      add\n        /* \"#utility.yul\":18485:18511   */\n      swap1\n      pop\n        /* \"#utility.yul\":18557:18566   */\n      dup2\n        /* \"#utility.yul\":18551:18555   */\n      dup2\n        /* \"#utility.yul\":18547:18567   */\n      sub\n        /* \"#utility.yul\":18543:18544   */\n      0x00\n        /* \"#utility.yul\":18532:18541   */\n      dup4\n        /* \"#utility.yul\":18528:18545   */\n      add\n        /* \"#utility.yul\":18521:18568   */\n      mstore\n        /* \"#utility.yul\":18585:18673   */\n      tag_334\n        /* \"#utility.yul\":18668:18672   */\n      dup2\n        /* \"#utility.yul\":18659:18665   */\n      dup6\n        /* \"#utility.yul\":18651:18657   */\n      dup8\n        /* \"#utility.yul\":18585:18673   */\n      tag_123\n      jump\t// in\n    tag_334:\n        /* \"#utility.yul\":18577:18673   */\n      swap1\n      pop\n        /* \"#utility.yul\":18683:18755   */\n      tag_335\n        /* \"#utility.yul\":18751:18753   */\n      0x20\n        /* \"#utility.yul\":18740:18749   */\n      dup4\n        /* \"#utility.yul\":18736:18754   */\n      add\n        /* \"#utility.yul\":18727:18733   */\n      dup5\n        /* \"#utility.yul\":18683:18755   */\n      tag_112\n      jump\t// in\n    tag_335:\n        /* \"#utility.yul\":18319:18762   */\n      swap5\n      swap4\n      pop\n      pop\n      pop\n      pop\n      jump\t// out\n\n    auxdata: 0xa2646970667358221220ca9b299b7824e5b289b704e2336e659c2cde312a44c4264145cc4e73e83bed0d64736f6c63430008150033\n}\n",
				"bytecode": {
					"linkReferences": {},
					"object": "608060405234801561000f575f80fd5b50335f806101000a81548173ffffffffffffffffffffffffffffffffffffffff021916908373ffffffffffffffffffffffffffffffffffffffff16021790555061129d8061005c5f395ff3fe608060405234801561000f575f80fd5b5060043610610060575f3560e01c80631ef49a8c146100645780633bc5f48a146100805780636e4a44c51461009c5780638da5cb5b146100b8578063b905ad78146100d6578063ced96fe3146100f4575b5f80fd5b61007e60048036038101906100799190610920565b610110565b005b61009a60048036038101906100959190610aa3565b610309565b005b6100b660048036038101906100b19190610920565b6104b6565b005b6100c0610672565b6040516100cd9190610b29565b60405180910390f35b6100de610695565b6040516100eb9190610b5a565b60405180910390f35b61010e60048036038101906101099190610920565b61069b565b005b5f60018383604051610123929190610ba1565b90815260200160405180910390205f01805461013e90610be6565b905011610180576040517f08c379a000000000000000000000000000000000000000000000000000000000815260040161017790610c70565b60405180910390fd5b3373ffffffffffffffffffffffffffffffffffffffff16600183836040516101a9929190610ba1565b90815260200160405180910390206001015f9054906101000a900473ffffffffffffffffffffffffffffffffffffffff1673ffffffffffffffffffffffffffffffffffffffff1614610230576040517f08c379a000000000000000000000000000000000000000000000000000000000815260040161022790610cd8565b60405180910390fd5b5f60018383604051610243929190610ba1565b90815260200160405180910390206001015f6101000a81548173ffffffffffffffffffffffffffffffffffffffff021916908373ffffffffffffffffffffffffffffffffffffffff16021790555060018083836040516102a4929190610ba1565b908152602001604051809103902060010160146101000a81548160ff0219169083151502179055507f1a467d925cbd35155a7cdd05f9207ad929a02ffb3292ece4d3291a4359f6c83c82826040516102fd929190610d22565b60405180910390a15050565b5f8054906101000a900473ffffffffffffffffffffffffffffffffffffffff1673ffffffffffffffffffffffffffffffffffffffff163373ffffffffffffffffffffffffffffffffffffffff1614610396576040517f08c379a000000000000000000000000000000000000000000000000000000000815260040161038d90610db4565b60405180910390fd5b60025f8154809291906103a890610dff565b919050555060405180606001604052808281526020015f73ffffffffffffffffffffffffffffffffffffffff168152602001600115158152506001826040516103f19190610ea8565b90815260200160405180910390205f820151815f019081610412919061105b565b506020820151816001015f6101000a81548173ffffffffffffffffffffffffffffffffffffffff021916908373ffffffffffffffffffffffffffffffffffffffff16021790555060408201518160010160146101000a81548160ff0219169083151502179055509050507f272b168e2afaa6efdce672a6f4f4f1b37eb61405daf39e4b520beeeacb2596ef816040516104ab9190611162565b60405180910390a150565b5f8054906101000a900473ffffffffffffffffffffffffffffffffffffffff1673ffffffffffffffffffffffffffffffffffffffff163373ffffffffffffffffffffffffffffffffffffffff1614610543576040517f08c379a000000000000000000000000000000000000000000000000000000000815260040161053a90610db4565b60405180910390fd5b5f60018383604051610556929190610ba1565b90815260200160405180910390205f01805461057190610be6565b9050116105b3576040517f08c379a00000000000000000000000000000000000000000000000000000000081526004016105aa90610c70565b60405180910390fd5b60025f8154809291906105c590611182565b9190505550600182826040516105dc929190610ba1565b90815260200160405180910390205f8082015f6105f99190610856565b600182015f6101000a81549073ffffffffffffffffffffffffffffffffffffffff02191690556001820160146101000a81549060ff021916905550507f2fbe5051f01f13ba3c0f1836a7495627a4aa5dc1bed39f88f01b531dc0c7756f8282604051610666929190610d22565b60405180910390a15050565b5f8054906101000a900473ffffffffffffffffffffffffffffffffffffffff1681565b60025481565b5f600183836040516106ae929190610ba1565b90815260200160405180910390205f0180546106c990610be6565b90501161070b576040517f08c379a000000000000000000000000000000000000000000000000000000000815260040161070290610c70565b60405180910390fd5b6001828260405161071d929190610ba1565b908152602001604051809103902060010160149054906101000a900460ff1661077b576040517f08c379a000000000000000000000000000000000000000000000000000000000815260040161077290611219565b60405180910390fd5b336001838360405161078e929190610ba1565b90815260200160405180910390206001015f6101000a81548173ffffffffffffffffffffffffffffffffffffffff021916908373ffffffffffffffffffffffffffffffffffffffff1602179055505f600183836040516107ef929190610ba1565b908152602001604051809103902060010160146101000a81548160ff0219169083151502179055507f469d7b1cb358edcbc2c8e949b8a6598672e51661418984c55d85a904a4b2205382823360405161084a93929190611237565b60405180910390a15050565b50805461086290610be6565b5f825580601f106108735750610890565b601f0160209004905f5260205f209081019061088f9190610893565b5b50565b5b808211156108aa575f815f905550600101610894565b5090565b5f604051905090565b5f80fd5b5f80fd5b5f80fd5b5f80fd5b5f80fd5b5f8083601f8401126108e0576108df6108bf565b5b8235905067ffffffffffffffff8111156108fd576108fc6108c3565b5b602083019150836001820283011115610919576109186108c7565b5b9250929050565b5f8060208385031215610936576109356108b7565b5b5f83013567ffffffffffffffff811115610953576109526108bb565b5b61095f858286016108cb565b92509250509250929050565b5f80fd5b5f601f19601f8301169050919050565b7f4e487b71000000000000000000000000000000000000000000000000000000005f52604160045260245ffd5b6109b58261096f565b810181811067ffffffffffffffff821117156109d4576109d361097f565b5b80604052505050565b5f6109e66108ae565b90506109f282826109ac565b919050565b5f67ffffffffffffffff821115610a1157610a1061097f565b5b610a1a8261096f565b9050602081019050919050565b828183375f83830152505050565b5f610a47610a42846109f7565b6109dd565b905082815260208101848484011115610a6357610a6261096b565b5b610a6e848285610a27565b509392505050565b5f82601f830112610a8a57610a896108bf565b5b8135610a9a848260208601610a35565b91505092915050565b5f60208284031215610ab857610ab76108b7565b5b5f82013567ffffffffffffffff811115610ad557610ad46108bb565b5b610ae184828501610a76565b91505092915050565b5f73ffffffffffffffffffffffffffffffffffffffff82169050919050565b5f610b1382610aea565b9050919050565b610b2381610b09565b82525050565b5f602082019050610b3c5f830184610b1a565b92915050565b5f819050919050565b610b5481610b42565b82525050565b5f602082019050610b6d5f830184610b4b565b92915050565b5f81905092915050565b5f610b888385610b73565b9350610b95838584610a27565b82840190509392505050565b5f610bad828486610b7d565b91508190509392505050565b7f4e487b71000000000000000000000000000000000000000000000000000000005f52602260045260245ffd5b5f6002820490506001821680610bfd57607f821691505b602082108103610c1057610c0f610bb9565b5b50919050565b5f82825260208201905092915050565b7f5468697320626f6f6b20646f65736e27742065786973740000000000000000005f82015250565b5f610c5a601783610c16565b9150610c6582610c26565b602082019050919050565b5f6020820190508181035f830152610c8781610c4e565b9050919050565b7f596f75206469646e277420626f72726f77207468697320626f6f6b00000000005f82015250565b5f610cc2601b83610c16565b9150610ccd82610c8e565b602082019050919050565b5f6020820190508181035f830152610cef81610cb6565b9050919050565b5f610d018385610c16565b9350610d0e838584610a27565b610d178361096f565b840190509392505050565b5f6020820190508181035f830152610d3b818486610cf6565b90509392505050565b7f4f6e6c79206f776e65722063616e2063616c6c20746869732066756e6374696f5f8201527f6e00000000000000000000000000000000000000000000000000000000000000602082015250565b5f610d9e602183610c16565b9150610da982610d44565b604082019050919050565b5f6020820190508181035f830152610dcb81610d92565b9050919050565b7f4e487b71000000000000000000000000000000000000000000000000000000005f52601160045260245ffd5b5f610e0982610b42565b91507fffffffffffffffffffffffffffffffffffffffffffffffffffffffffffffffff8203610e3b57610e3a610dd2565b5b600182019050919050565b5f81519050919050565b5f5b83811015610e6d578082015181840152602081019050610e52565b5f8484015250505050565b5f610e8282610e46565b610e8c8185610b73565b9350610e9c818560208601610e50565b80840191505092915050565b5f610eb38284610e78565b915081905092915050565b5f819050815f5260205f209050919050565b5f6020601f8301049050919050565b5f82821b905092915050565b5f60088302610f1a7fffffffffffffffffffffffffffffffffffffffffffffffffffffffffffffffff82610edf565b610f248683610edf565b95508019841693508086168417925050509392505050565b5f819050919050565b5f610f5f610f5a610f5584610b42565b610f3c565b610b42565b9050919050565b5f819050919050565b610f7883610f45565b610f8c610f8482610f66565b848454610eeb565b825550505050565b5f90565b610fa0610f94565b610fab818484610f6f565b505050565b5b81811015610fce57610fc35f82610f98565b600181019050610fb1565b5050565b601f82111561101357610fe481610ebe565b610fed84610ed0565b81016020851015610ffc578190505b61101061100885610ed0565b830182610fb0565b50505b505050565b5f82821c905092915050565b5f6110335f1984600802611018565b1980831691505092915050565b5f61104b8383611024565b9150826002028217905092915050565b61106482610e46565b67ffffffffffffffff81111561107d5761107c61097f565b5b6110878254610be6565b611092828285610fd2565b5f60209050601f8311600181146110c3575f84156110b1578287015190505b6110bb8582611040565b865550611122565b601f1984166110d186610ebe565b5f5b828110156110f8578489015182556001820191506020850194506020810190506110d3565b868310156111155784890151611111601f891682611024565b8355505b6001600288020188555050505b505050505050565b5f61113482610e46565b61113e8185610c16565b935061114e818560208601610e50565b6111578161096f565b840191505092915050565b5f6020820190508181035f83015261117a818461112a565b905092915050565b5f61118c82610b42565b91505f820361119e5761119d610dd2565b5b600182039050919050565b7f5468697320626f6f6b206973206e6f7420617661696c61626c6520666f7220625f8201527f6f72726f77696e67000000000000000000000000000000000000000000000000602082015250565b5f611203602883610c16565b915061120e826111a9565b604082019050919050565b5f6020820190508181035f830152611230816111f7565b9050919050565b5f6040820190508181035f830152611250818587610cf6565b905061125f6020830184610b1a565b94935050505056fea2646970667358221220ca9b299b7824e5b289b704e2336e659c2cde312a44c4264145cc4e73e83bed0d64736f6c63430008150033",
					"opcodes": "PUSH1 0x80 PUSH1 0x40 MSTORE CALLVALUE DUP1 ISZERO PUSH2 0xF JUMPI PUSH0 DUP1 REVERT JUMPDEST POP CALLER PUSH0 DUP1 PUSH2 0x100 EXP DUP2 SLOAD DUP2 PUSH20 0xFFFFFFFFFFFFFFFFFFFFFFFFFFFFFFFFFFFFFFFF MUL NOT AND SWAP1 DUP4 PUSH20 0xFFFFFFFFFFFFFFFFFFFFFFFFFFFFFFFFFFFFFFFF AND MUL OR SWAP1 SSTORE POP PUSH2 0x129D DUP1 PUSH2 0x5C PUSH0 CODECOPY PUSH0 RETURN INVALID PUSH1 0x80 PUSH1 0x40 MSTORE CALLVALUE DUP1 ISZERO PUSH2 0xF JUMPI PUSH0 DUP1 REVERT JUMPDEST POP PUSH1 0x4 CALLDATASIZE LT PUSH2 0x60 JUMPI PUSH0 CALLDATALOAD PUSH1 0xE0 SHR DUP1 PUSH4 0x1EF49A8C EQ PUSH2 0x64 JUMPI DUP1 PUSH4 0x3BC5F48A EQ PUSH2 0x80 JUMPI DUP1 PUSH4 0x6E4A44C5 EQ PUSH2 0x9C JUMPI DUP1 PUSH4 0x8DA5CB5B EQ PUSH2 0xB8 JUMPI DUP1 PUSH4 0xB905AD78 EQ PUSH2 0xD6 JUMPI DUP1 PUSH4 0xCED96FE3 EQ PUSH2 0xF4 JUMPI JUMPDEST PUSH0 DUP1 REVERT JUMPDEST PUSH2 0x7E PUSH1 0x4 DUP1 CALLDATASIZE SUB DUP2 ADD SWAP1 PUSH2 0x79 SWAP2 SWAP1 PUSH2 0x920 JUMP JUMPDEST PUSH2 0x110 JUMP JUMPDEST STOP JUMPDEST PUSH2 0x9A PUSH1 0x4 DUP1 CALLDATASIZE SUB DUP2 ADD SWAP1 PUSH2 0x95 SWAP2 SWAP1 PUSH2 0xAA3 JUMP JUMPDEST PUSH2 0x309 JUMP JUMPDEST STOP JUMPDEST PUSH2 0xB6 PUSH1 0x4 DUP1 CALLDATASIZE SUB DUP2 ADD SWAP1 PUSH2 0xB1 SWAP2 SWAP1 PUSH2 0x920 JUMP JUMPDEST PUSH2 0x4B6 JUMP JUMPDEST STOP JUMPDEST PUSH2 0xC0 PUSH2 0x672 JUMP JUMPDEST PUSH1 0x40 MLOAD PUSH2 0xCD SWAP2 SWAP1 PUSH2 0xB29 JUMP JUMPDEST PUSH1 0x40 MLOAD DUP1 SWAP2 SUB SWAP1 RETURN JUMPDEST PUSH2 0xDE PUSH2 0x695 JUMP JUMPDEST PUSH1 0x40 MLOAD PUSH2 0xEB SWAP2 SWAP1 PUSH2 0xB5A JUMP JUMPDEST PUSH1 0x40 MLOAD DUP1 SWAP2 SUB SWAP1 RETURN JUMPDEST PUSH2 0x10E PUSH1 0x4 DUP1 CALLDATASIZE SUB DUP2 ADD SWAP1 PUSH2 0x109 SWAP2 SWAP1 PUSH2 0x920 JUMP JUMPDEST PUSH2 0x69B JUMP JUMPDEST STOP JUMPDEST PUSH0 PUSH1 0x1 DUP4 DUP4 PUSH1 0x40 MLOAD PUSH2 0x123 SWAP3 SWAP2 SWAP1 PUSH2 0xBA1 JUMP JUMPDEST SWAP1 DUP2 MSTORE PUSH1 0x20 ADD PUSH1 0x40 MLOAD DUP1 SWAP2 SUB SWAP1 KECCAK256 PUSH0 ADD DUP1 SLOAD PUSH2 0x13E SWAP1 PUSH2 0xBE6 JUMP JUMPDEST SWAP1 POP GT PUSH2 0x180 JUMPI PUSH1 0x40 MLOAD PUSH32 0x8C379A000000000000000000000000000000000000000000000000000000000 DUP2 MSTORE PUSH1 0x4 ADD PUSH2 0x177 SWAP1 PUSH2 0xC70 JUMP JUMPDEST PUSH1 0x40 MLOAD DUP1 SWAP2 SUB SWAP1 REVERT JUMPDEST CALLER PUSH20 0xFFFFFFFFFFFFFFFFFFFFFFFFFFFFFFFFFFFFFFFF AND PUSH1 0x1 DUP4 DUP4 PUSH1 0x40 MLOAD PUSH2 0x1A9 SWAP3 SWAP2 SWAP1 PUSH2 0xBA1 JUMP JUMPDEST SWAP1 DUP2 MSTORE PUSH1 0x20 ADD PUSH1 0x40 MLOAD DUP1 SWAP2 SUB SWAP1 KECCAK256 PUSH1 0x1 ADD PUSH0 SWAP1 SLOAD SWAP1 PUSH2 0x100 EXP SWAP1 DIV PUSH20 0xFFFFFFFFFFFFFFFFFFFFFFFFFFFFFFFFFFFFFFFF AND PUSH20 0xFFFFFFFFFFFFFFFFFFFFFFFFFFFFFFFFFFFFFFFF AND EQ PUSH2 0x230 JUMPI PUSH1 0x40 MLOAD PUSH32 0x8C379A000000000000000000000000000000000000000000000000000000000 DUP2 MSTORE PUSH1 0x4 ADD PUSH2 0x227 SWAP1 PUSH2 0xCD8 JUMP JUMPDEST PUSH1 0x40 MLOAD DUP1 SWAP2 SUB SWAP1 REVERT JUMPDEST PUSH0 PUSH1 0x1 DUP4 DUP4 PUSH1 0x40 MLOAD PUSH2 0x243 SWAP3 SWAP2 SWAP1 PUSH2 0xBA1 JUMP JUMPDEST SWAP1 DUP2 MSTORE PUSH1 0x20 ADD PUSH1 0x40 MLOAD DUP1 SWAP2 SUB SWAP1 KECCAK256 PUSH1 0x1 ADD PUSH0 PUSH2 0x100 EXP DUP2 SLOAD DUP2 PUSH20 0xFFFFFFFFFFFFFFFFFFFFFFFFFFFFFFFFFFFFFFFF MUL NOT AND SWAP1 DUP4 PUSH20 0xFFFFFFFFFFFFFFFFFFFFFFFFFFFFFFFFFFFFFFFF AND MUL OR SWAP1 SSTORE POP PUSH1 0x1 DUP1 DUP4 DUP4 PUSH1 0x40 MLOAD PUSH2 0x2A4 SWAP3 SWAP2 SWAP1 PUSH2 0xBA1 JUMP JUMPDEST SWAP1 DUP2 MSTORE PUSH1 0x20 ADD PUSH1 0x40 MLOAD DUP1 SWAP2 SUB SWAP1 KECCAK256 PUSH1 0x1 ADD PUSH1 0x14 PUSH2 0x100 EXP DUP2 SLOAD DUP2 PUSH1 0xFF MUL NOT AND SWAP1 DUP4 ISZERO ISZERO MUL OR SWAP1 SSTORE POP PUSH32 0x1A467D925CBD35155A7CDD05F9207AD929A02FFB3292ECE4D3291A4359F6C83C DUP3 DUP3 PUSH1 0x40 MLOAD PUSH2 0x2FD SWAP3 SWAP2 SWAP1 PUSH2 0xD22 JUMP JUMPDEST PUSH1 0x40 MLOAD DUP1 SWAP2 SUB SWAP1 LOG1 POP POP JUMP JUMPDEST PUSH0 DUP1 SLOAD SWAP1 PUSH2 0x100 EXP SWAP1 DIV PUSH20 0xFFFFFFFFFFFFFFFFFFFFFFFFFFFFFFFFFFFFFFFF AND PUSH20 0xFFFFFFFFFFFFFFFFFFFFFFFFFFFFFFFFFFFFFFFF AND CALLER PUSH20 0xFFFFFFFFFFFFFFFFFFFFFFFFFFFFFFFFFFFFFFFF AND EQ PUSH2 0x396 JUMPI PUSH1 0x40 MLOAD PUSH32 0x8C379A000000000000000000000000000000000000000000000000000000000 DUP2 MSTORE PUSH1 0x4 ADD PUSH2 0x38D SWAP1 PUSH2 0xDB4 JUMP JUMPDEST PUSH1 0x40 MLOAD DUP1 SWAP2 SUB SWAP1 REVERT JUMPDEST PUSH1 0x2 PUSH0 DUP2 SLOAD DUP1 SWAP3 SWAP2 SWAP1 PUSH2 0x3A8 SWAP1 PUSH2 0xDFF JUMP JUMPDEST SWAP2 SWAP1 POP SSTORE POP PUSH1 0x40 MLOAD DUP1 PUSH1 0x60 ADD PUSH1 0x40 MSTORE DUP1 DUP3 DUP2 MSTORE PUSH1 0x20 ADD PUSH0 PUSH20 0xFFFFFFFFFFFFFFFFFFFFFFFFFFFFFFFFFFFFFFFF AND DUP2 MSTORE PUSH1 0x20 ADD PUSH1 0x1 ISZERO ISZERO DUP2 MSTORE POP PUSH1 0x1 DUP3 PUSH1 0x40 MLOAD PUSH2 0x3F1 SWAP2 SWAP1 PUSH2 0xEA8 JUMP JUMPDEST SWAP1 DUP2 MSTORE PUSH1 0x20 ADD PUSH1 0x40 MLOAD DUP1 SWAP2 SUB SWAP1 KECCAK256 PUSH0 DUP3 ADD MLOAD DUP2 PUSH0 ADD SWAP1 DUP2 PUSH2 0x412 SWAP2 SWAP1 PUSH2 0x105B JUMP JUMPDEST POP PUSH1 0x20 DUP3 ADD MLOAD DUP2 PUSH1 0x1 ADD PUSH0 PUSH2 0x100 EXP DUP2 SLOAD DUP2 PUSH20 0xFFFFFFFFFFFFFFFFFFFFFFFFFFFFFFFFFFFFFFFF MUL NOT AND SWAP1 DUP4 PUSH20 0xFFFFFFFFFFFFFFFFFFFFFFFFFFFFFFFFFFFFFFFF AND MUL OR SWAP1 SSTORE POP PUSH1 0x40 DUP3 ADD MLOAD DUP2 PUSH1 0x1 ADD PUSH1 0x14 PUSH2 0x100 EXP DUP2 SLOAD DUP2 PUSH1 0xFF MUL NOT AND SWAP1 DUP4 ISZERO ISZERO MUL OR SWAP1 SSTORE POP SWAP1 POP POP PUSH32 0x272B168E2AFAA6EFDCE672A6F4F4F1B37EB61405DAF39E4B520BEEEACB2596EF DUP2 PUSH1 0x40 MLOAD PUSH2 0x4AB SWAP2 SWAP1 PUSH2 0x1162 JUMP JUMPDEST PUSH1 0x40 MLOAD DUP1 SWAP2 SUB SWAP1 LOG1 POP JUMP JUMPDEST PUSH0 DUP1 SLOAD SWAP1 PUSH2 0x100 EXP SWAP1 DIV PUSH20 0xFFFFFFFFFFFFFFFFFFFFFFFFFFFFFFFFFFFFFFFF AND PUSH20 0xFFFFFFFFFFFFFFFFFFFFFFFFFFFFFFFFFFFFFFFF AND CALLER PUSH20 0xFFFFFFFFFFFFFFFFFFFFFFFFFFFFFFFFFFFFFFFF AND EQ PUSH2 0x543 JUMPI PUSH1 0x40 MLOAD PUSH32 0x8C379A000000000000000000000000000000000000000000000000000000000 DUP2 MSTORE PUSH1 0x4 ADD PUSH2 0x53A SWAP1 PUSH2 0xDB4 JUMP JUMPDEST PUSH1 0x40 MLOAD DUP1 SWAP2 SUB SWAP1 REVERT JUMPDEST PUSH0 PUSH1 0x1 DUP4 DUP4 PUSH1 0x40 MLOAD PUSH2 0x556 SWAP3 SWAP2 SWAP1 PUSH2 0xBA1 JUMP JUMPDEST SWAP1 DUP2 MSTORE PUSH1 0x20 ADD PUSH1 0x40 MLOAD DUP1 SWAP2 SUB SWAP1 KECCAK256 PUSH0 ADD DUP1 SLOAD PUSH2 0x571 SWAP1 PUSH2 0xBE6 JUMP JUMPDEST SWAP1 POP GT PUSH2 0x5B3 JUMPI PUSH1 0x40 MLOAD PUSH32 0x8C379A000000000000000000000000000000000000000000000000000000000 DUP2 MSTORE PUSH1 0x4 ADD PUSH2 0x5AA SWAP1 PUSH2 0xC70 JUMP JUMPDEST PUSH1 0x40 MLOAD DUP1 SWAP2 SUB SWAP1 REVERT JUMPDEST PUSH1 0x2 PUSH0 DUP2 SLOAD DUP1 SWAP3 SWAP2 SWAP1 PUSH2 0x5C5 SWAP1 PUSH2 0x1182 JUMP JUMPDEST SWAP2 SWAP1 POP SSTORE POP PUSH1 0x1 DUP3 DUP3 PUSH1 0x40 MLOAD PUSH2 0x5DC SWAP3 SWAP2 SWAP1 PUSH2 0xBA1 JUMP JUMPDEST SWAP1 DUP2 MSTORE PUSH1 0x20 ADD PUSH1 0x40 MLOAD DUP1 SWAP2 SUB SWAP1 KECCAK256 PUSH0 DUP1 DUP3 ADD PUSH0 PUSH2 0x5F9 SWAP2 SWAP1 PUSH2 0x856 JUMP JUMPDEST PUSH1 0x1 DUP3 ADD PUSH0 PUSH2 0x100 EXP DUP2 SLOAD SWAP1 PUSH20 0xFFFFFFFFFFFFFFFFFFFFFFFFFFFFFFFFFFFFFFFF MUL NOT AND SWAP1 SSTORE PUSH1 0x1 DUP3 ADD PUSH1 0x14 PUSH2 0x100 EXP DUP2 SLOAD SWAP1 PUSH1 0xFF MUL NOT AND SWAP1 SSTORE POP POP PUSH32 0x2FBE5051F01F13BA3C0F1836A7495627A4AA5DC1BED39F88F01B531DC0C7756F DUP3 DUP3 PUSH1 0x40 MLOAD PUSH2 0x666 SWAP3 SWAP2 SWAP1 PUSH2 0xD22 JUMP JUMPDEST PUSH1 0x40 MLOAD DUP1 SWAP2 SUB SWAP1 LOG1 POP POP JUMP JUMPDEST PUSH0 DUP1 SLOAD SWAP1 PUSH2 0x100 EXP SWAP1 DIV PUSH20 0xFFFFFFFFFFFFFFFFFFFFFFFFFFFFFFFFFFFFFFFF AND DUP2 JUMP JUMPDEST PUSH1 0x2 SLOAD DUP2 JUMP JUMPDEST PUSH0 PUSH1 0x1 DUP4 DUP4 PUSH1 0x40 MLOAD PUSH2 0x6AE SWAP3 SWAP2 SWAP1 PUSH2 0xBA1 JUMP JUMPDEST SWAP1 DUP2 MSTORE PUSH1 0x20 ADD PUSH1 0x40 MLOAD DUP1 SWAP2 SUB SWAP1 KECCAK256 PUSH0 ADD DUP1 SLOAD PUSH2 0x6C9 SWAP1 PUSH2 0xBE6 JUMP JUMPDEST SWAP1 POP GT PUSH2 0x70B JUMPI PUSH1 0x40 MLOAD PUSH32 0x8C379A000000000000000000000000000000000000000000000000000000000 DUP2 MSTORE PUSH1 0x4 ADD PUSH2 0x702 SWAP1 PUSH2 0xC70 JUMP JUMPDEST PUSH1 0x40 MLOAD DUP1 SWAP2 SUB SWAP1 REVERT JUMPDEST PUSH1 0x1 DUP3 DUP3 PUSH1 0x40 MLOAD PUSH2 0x71D SWAP3 SWAP2 SWAP1 PUSH2 0xBA1 JUMP JUMPDEST SWAP1 DUP2 MSTORE PUSH1 0x20 ADD PUSH1 0x40 MLOAD DUP1 SWAP2 SUB SWAP1 KECCAK256 PUSH1 0x1 ADD PUSH1 0x14 SWAP1 SLOAD SWAP1 PUSH2 0x100 EXP SWAP1 DIV PUSH1 0xFF AND PUSH2 0x77B JUMPI PUSH1 0x40 MLOAD PUSH32 0x8C379A000000000000000000000000000000000000000000000000000000000 DUP2 MSTORE PUSH1 0x4 ADD PUSH2 0x772 SWAP1 PUSH2 0x1219 JUMP JUMPDEST PUSH1 0x40 MLOAD DUP1 SWAP2 SUB SWAP1 REVERT JUMPDEST CALLER PUSH1 0x1 DUP4 DUP4 PUSH1 0x40 MLOAD PUSH2 0x78E SWAP3 SWAP2 SWAP1 PUSH2 0xBA1 JUMP JUMPDEST SWAP1 DUP2 MSTORE PUSH1 0x20 ADD PUSH1 0x40 MLOAD DUP1 SWAP2 SUB SWAP1 KECCAK256 PUSH1 0x1 ADD PUSH0 PUSH2 0x100 EXP DUP2 SLOAD DUP2 PUSH20 0xFFFFFFFFFFFFFFFFFFFFFFFFFFFFFFFFFFFFFFFF MUL NOT AND SWAP1 DUP4 PUSH20 0xFFFFFFFFFFFFFFFFFFFFFFFFFFFFFFFFFFFFFFFF AND MUL OR SWAP1 SSTORE POP PUSH0 PUSH1 0x1 DUP4 DUP4 PUSH1 0x40 MLOAD PUSH2 0x7EF SWAP3 SWAP2 SWAP1 PUSH2 0xBA1 JUMP JUMPDEST SWAP1 DUP2 MSTORE PUSH1 0x20 ADD PUSH1 0x40 MLOAD DUP1 SWAP2 SUB SWAP1 KECCAK256 PUSH1 0x1 ADD PUSH1 0x14 PUSH2 0x100 EXP DUP2 SLOAD DUP2 PUSH1 0xFF MUL NOT AND SWAP1 DUP4 ISZERO ISZERO MUL OR SWAP1 SSTORE POP PUSH32 0x469D7B1CB358EDCBC2C8E949B8A6598672E51661418984C55D85A904A4B22053 DUP3 DUP3 CALLER PUSH1 0x40 MLOAD PUSH2 0x84A SWAP4 SWAP3 SWAP2 SWAP1 PUSH2 0x1237 JUMP JUMPDEST PUSH1 0x40 MLOAD DUP1 SWAP2 SUB SWAP1 LOG1 POP POP JUMP JUMPDEST POP DUP1 SLOAD PUSH2 0x862 SWAP1 PUSH2 0xBE6 JUMP JUMPDEST PUSH0 DUP3 SSTORE DUP1 PUSH1 0x1F LT PUSH2 0x873 JUMPI POP PUSH2 0x890 JUMP JUMPDEST PUSH1 0x1F ADD PUSH1 0x20 SWAP1 DIV SWAP1 PUSH0 MSTORE PUSH1 0x20 PUSH0 KECCAK256 SWAP1 DUP2 ADD SWAP1 PUSH2 0x88F SWAP2 SWAP1 PUSH2 0x893 JUMP JUMPDEST JUMPDEST POP JUMP JUMPDEST JUMPDEST DUP1 DUP3 GT ISZERO PUSH2 0x8AA JUMPI PUSH0 DUP2 PUSH0 SWAP1 SSTORE POP PUSH1 0x1 ADD PUSH2 0x894 JUMP JUMPDEST POP SWAP1 JUMP JUMPDEST PUSH0 PUSH1 0x40 MLOAD SWAP1 POP SWAP1 JUMP JUMPDEST PUSH0 DUP1 REVERT JUMPDEST PUSH0 DUP1 REVERT JUMPDEST PUSH0 DUP1 REVERT JUMPDEST PUSH0 DUP1 REVERT JUMPDEST PUSH0 DUP1 REVERT JUMPDEST PUSH0 DUP1 DUP4 PUSH1 0x1F DUP5 ADD SLT PUSH2 0x8E0 JUMPI PUSH2 0x8DF PUSH2 0x8BF JUMP JUMPDEST JUMPDEST DUP3 CALLDATALOAD SWAP1 POP PUSH8 0xFFFFFFFFFFFFFFFF DUP2 GT ISZERO PUSH2 0x8FD JUMPI PUSH2 0x8FC PUSH2 0x8C3 JUMP JUMPDEST JUMPDEST PUSH1 0x20 DUP4 ADD SWAP2 POP DUP4 PUSH1 0x1 DUP3 MUL DUP4 ADD GT ISZERO PUSH2 0x919 JUMPI PUSH2 0x918 PUSH2 0x8C7 JUMP JUMPDEST JUMPDEST SWAP3 POP SWAP3 SWAP1 POP JUMP JUMPDEST PUSH0 DUP1 PUSH1 0x20 DUP4 DUP6 SUB SLT ISZERO PUSH2 0x936 JUMPI PUSH2 0x935 PUSH2 0x8B7 JUMP JUMPDEST JUMPDEST PUSH0 DUP4 ADD CALLDATALOAD PUSH8 0xFFFFFFFFFFFFFFFF DUP2 GT ISZERO PUSH2 0x953 JUMPI PUSH2 0x952 PUSH2 0x8BB JUMP JUMPDEST JUMPDEST PUSH2 0x95F DUP6 DUP3 DUP7 ADD PUSH2 0x8CB JUMP JUMPDEST SWAP3 POP SWAP3 POP POP SWAP3 POP SWAP3 SWAP1 POP JUMP JUMPDEST PUSH0 DUP1 REVERT JUMPDEST PUSH0 PUSH1 0x1F NOT PUSH1 0x1F DUP4 ADD AND SWAP1 POP SWAP2 SWAP1 POP JUMP JUMPDEST PUSH32 0x4E487B7100000000000000000000000000000000000000000000000000000000 PUSH0 MSTORE PUSH1 0x41 PUSH1 0x4 MSTORE PUSH1 0x24 PUSH0 REVERT JUMPDEST PUSH2 0x9B5 DUP3 PUSH2 0x96F JUMP JUMPDEST DUP2 ADD DUP2 DUP2 LT PUSH8 0xFFFFFFFFFFFFFFFF DUP3 GT OR ISZERO PUSH2 0x9D4 JUMPI PUSH2 0x9D3 PUSH2 0x97F JUMP JUMPDEST JUMPDEST DUP1 PUSH1 0x40 MSTORE POP POP POP JUMP JUMPDEST PUSH0 PUSH2 0x9E6 PUSH2 0x8AE JUMP JUMPDEST SWAP1 POP PUSH2 0x9F2 DUP3 DUP3 PUSH2 0x9AC JUMP JUMPDEST SWAP2 SWAP1 POP JUMP JUMPDEST PUSH0 PUSH8 0xFFFFFFFFFFFFFFFF DUP3 GT ISZERO PUSH2 0xA11 JUMPI PUSH2 0xA10 PUSH2 0x97F JUMP JUMPDEST JUMPDEST PUSH2 0xA1A DUP3 PUSH2 0x96F JUMP JUMPDEST SWAP1 POP PUSH1 0x20 DUP2 ADD SWAP1 POP SWAP2 SWAP1 POP JUMP JUMPDEST DUP3 DUP2 DUP4 CALLDATACOPY PUSH0 DUP4 DUP4 ADD MSTORE POP POP POP JUMP JUMPDEST PUSH0 PUSH2 0xA47 PUSH2 0xA42 DUP5 PUSH2 0x9F7 JUMP JUMPDEST PUSH2 0x9DD JUMP JUMPDEST SWAP1 POP DUP3 DUP2 MSTORE PUSH1 0x20 DUP2 ADD DUP5 DUP5 DUP5 ADD GT ISZERO PUSH2 0xA63 JUMPI PUSH2 0xA62 PUSH2 0x96B JUMP JUMPDEST JUMPDEST PUSH2 0xA6E DUP5 DUP3 DUP6 PUSH2 0xA27 JUMP JUMPDEST POP SWAP4 SWAP3 POP POP POP JUMP JUMPDEST PUSH0 DUP3 PUSH1 0x1F DUP4 ADD SLT PUSH2 0xA8A JUMPI PUSH2 0xA89 PUSH2 0x8BF JUMP JUMPDEST JUMPDEST DUP2 CALLDATALOAD PUSH2 0xA9A DUP5 DUP3 PUSH1 0x20 DUP7 ADD PUSH2 0xA35 JUMP JUMPDEST SWAP2 POP POP SWAP3 SWAP2 POP POP JUMP JUMPDEST PUSH0 PUSH1 0x20 DUP3 DUP5 SUB SLT ISZERO PUSH2 0xAB8 JUMPI PUSH2 0xAB7 PUSH2 0x8B7 JUMP JUMPDEST JUMPDEST PUSH0 DUP3 ADD CALLDATALOAD PUSH8 0xFFFFFFFFFFFFFFFF DUP2 GT ISZERO PUSH2 0xAD5 JUMPI PUSH2 0xAD4 PUSH2 0x8BB JUMP JUMPDEST JUMPDEST PUSH2 0xAE1 DUP5 DUP3 DUP6 ADD PUSH2 0xA76 JUMP JUMPDEST SWAP2 POP POP SWAP3 SWAP2 POP POP JUMP JUMPDEST PUSH0 PUSH20 0xFFFFFFFFFFFFFFFFFFFFFFFFFFFFFFFFFFFFFFFF DUP3 AND SWAP1 POP SWAP2 SWAP1 POP JUMP JUMPDEST PUSH0 PUSH2 0xB13 DUP3 PUSH2 0xAEA JUMP JUMPDEST SWAP1 POP SWAP2 SWAP1 POP JUMP JUMPDEST PUSH2 0xB23 DUP2 PUSH2 0xB09 JUMP JUMPDEST DUP3 MSTORE POP POP JUMP JUMPDEST PUSH0 PUSH1 0x20 DUP3 ADD SWAP1 POP PUSH2 0xB3C PUSH0 DUP4 ADD DUP5 PUSH2 0xB1A JUMP JUMPDEST SWAP3 SWAP2 POP POP JUMP JUMPDEST PUSH0 DUP2 SWAP1 POP SWAP2 SWAP1 POP JUMP JUMPDEST PUSH2 0xB54 DUP2 PUSH2 0xB42 JUMP JUMPDEST DUP3 MSTORE POP POP JUMP JUMPDEST PUSH0 PUSH1 0x20 DUP3 ADD SWAP1 POP PUSH2 0xB6D PUSH0 DUP4 ADD DUP5 PUSH2 0xB4B JUMP JUMPDEST SWAP3 SWAP2 POP POP JUMP JUMPDEST PUSH0 DUP2 SWAP1 POP SWAP3 SWAP2 POP POP JUMP JUMPDEST PUSH0 PUSH2 0xB88 DUP4 DUP6 PUSH2 0xB73 JUMP JUMPDEST SWAP4 POP PUSH2 0xB95 DUP4 DUP6 DUP5 PUSH2 0xA27 JUMP JUMPDEST DUP3 DUP5 ADD SWAP1 POP SWAP4 SWAP3 POP POP POP JUMP JUMPDEST PUSH0 PUSH2 0xBAD DUP3 DUP5 DUP7 PUSH2 0xB7D JUMP JUMPDEST SWAP2 POP DUP2 SWAP1 POP SWAP4 SWAP3 POP POP POP JUMP JUMPDEST PUSH32 0x4E487B7100000000000000000000000000000000000000000000000000000000 PUSH0 MSTORE PUSH1 0x22 PUSH1 0x4 MSTORE PUSH1 0x24 PUSH0 REVERT JUMPDEST PUSH0 PUSH1 0x2 DUP3 DIV SWAP1 POP PUSH1 0x1 DUP3 AND DUP1 PUSH2 0xBFD JUMPI PUSH1 0x7F DUP3 AND SWAP2 POP JUMPDEST PUSH1 0x20 DUP3 LT DUP2 SUB PUSH2 0xC10 JUMPI PUSH2 0xC0F PUSH2 0xBB9 JUMP JUMPDEST JUMPDEST POP SWAP2 SWAP1 POP JUMP JUMPDEST PUSH0 DUP3 DUP3 MSTORE PUSH1 0x20 DUP3 ADD SWAP1 POP SWAP3 SWAP2 POP POP JUMP JUMPDEST PUSH32 0x5468697320626F6F6B20646F65736E2774206578697374000000000000000000 PUSH0 DUP3 ADD MSTORE POP JUMP JUMPDEST PUSH0 PUSH2 0xC5A PUSH1 0x17 DUP4 PUSH2 0xC16 JUMP JUMPDEST SWAP2 POP PUSH2 0xC65 DUP3 PUSH2 0xC26 JUMP JUMPDEST PUSH1 0x20 DUP3 ADD SWAP1 POP SWAP2 SWAP1 POP JUMP JUMPDEST PUSH0 PUSH1 0x20 DUP3 ADD SWAP1 POP DUP2 DUP2 SUB PUSH0 DUP4 ADD MSTORE PUSH2 0xC87 DUP2 PUSH2 0xC4E JUMP JUMPDEST SWAP1 POP SWAP2 SWAP1 POP JUMP JUMPDEST PUSH32 0x596F75206469646E277420626F72726F77207468697320626F6F6B0000000000 PUSH0 DUP3 ADD MSTORE POP JUMP JUMPDEST PUSH0 PUSH2 0xCC2 PUSH1 0x1B DUP4 PUSH2 0xC16 JUMP JUMPDEST SWAP2 POP PUSH2 0xCCD DUP3 PUSH2 0xC8E JUMP JUMPDEST PUSH1 0x20 DUP3 ADD SWAP1 POP SWAP2 SWAP1 POP JUMP JUMPDEST PUSH0 PUSH1 0x20 DUP3 ADD SWAP1 POP DUP2 DUP2 SUB PUSH0 DUP4 ADD MSTORE PUSH2 0xCEF DUP2 PUSH2 0xCB6 JUMP JUMPDEST SWAP1 POP SWAP2 SWAP1 POP JUMP JUMPDEST PUSH0 PUSH2 0xD01 DUP4 DUP6 PUSH2 0xC16 JUMP JUMPDEST SWAP4 POP PUSH2 0xD0E DUP4 DUP6 DUP5 PUSH2 0xA27 JUMP JUMPDEST PUSH2 0xD17 DUP4 PUSH2 0x96F JUMP JUMPDEST DUP5 ADD SWAP1 POP SWAP4 SWAP3 POP POP POP JUMP JUMPDEST PUSH0 PUSH1 0x20 DUP3 ADD SWAP1 POP DUP2 DUP2 SUB PUSH0 DUP4 ADD MSTORE PUSH2 0xD3B DUP2 DUP5 DUP7 PUSH2 0xCF6 JUMP JUMPDEST SWAP1 POP SWAP4 SWAP3 POP POP POP JUMP JUMPDEST PUSH32 0x4F6E6C79206F776E65722063616E2063616C6C20746869732066756E6374696F PUSH0 DUP3 ADD MSTORE PUSH32 0x6E00000000000000000000000000000000000000000000000000000000000000 PUSH1 0x20 DUP3 ADD MSTORE POP JUMP JUMPDEST PUSH0 PUSH2 0xD9E PUSH1 0x21 DUP4 PUSH2 0xC16 JUMP JUMPDEST SWAP2 POP PUSH2 0xDA9 DUP3 PUSH2 0xD44 JUMP JUMPDEST PUSH1 0x40 DUP3 ADD SWAP1 POP SWAP2 SWAP1 POP JUMP JUMPDEST PUSH0 PUSH1 0x20 DUP3 ADD SWAP1 POP DUP2 DUP2 SUB PUSH0 DUP4 ADD MSTORE PUSH2 0xDCB DUP2 PUSH2 0xD92 JUMP JUMPDEST SWAP1 POP SWAP2 SWAP1 POP JUMP JUMPDEST PUSH32 0x4E487B7100000000000000000000000000000000000000000000000000000000 PUSH0 MSTORE PUSH1 0x11 PUSH1 0x4 MSTORE PUSH1 0x24 PUSH0 REVERT JUMPDEST PUSH0 PUSH2 0xE09 DUP3 PUSH2 0xB42 JUMP JUMPDEST SWAP2 POP PUSH32 0xFFFFFFFFFFFFFFFFFFFFFFFFFFFFFFFFFFFFFFFFFFFFFFFFFFFFFFFFFFFFFFFF DUP3 SUB PUSH2 0xE3B JUMPI PUSH2 0xE3A PUSH2 0xDD2 JUMP JUMPDEST JUMPDEST PUSH1 0x1 DUP3 ADD SWAP1 POP SWAP2 SWAP1 POP JUMP JUMPDEST PUSH0 DUP2 MLOAD SWAP1 POP SWAP2 SWAP1 POP JUMP JUMPDEST PUSH0 JUMPDEST DUP4 DUP2 LT ISZERO PUSH2 0xE6D JUMPI DUP1 DUP3 ADD MLOAD DUP2 DUP5 ADD MSTORE PUSH1 0x20 DUP2 ADD SWAP1 POP PUSH2 0xE52 JUMP JUMPDEST PUSH0 DUP5 DUP5 ADD MSTORE POP POP POP POP JUMP JUMPDEST PUSH0 PUSH2 0xE82 DUP3 PUSH2 0xE46 JUMP JUMPDEST PUSH2 0xE8C DUP2 DUP6 PUSH2 0xB73 JUMP JUMPDEST SWAP4 POP PUSH2 0xE9C DUP2 DUP6 PUSH1 0x20 DUP7 ADD PUSH2 0xE50 JUMP JUMPDEST DUP1 DUP5 ADD SWAP2 POP POP SWAP3 SWAP2 POP POP JUMP JUMPDEST PUSH0 PUSH2 0xEB3 DUP3 DUP5 PUSH2 0xE78 JUMP JUMPDEST SWAP2 POP DUP2 SWAP1 POP SWAP3 SWAP2 POP POP JUMP JUMPDEST PUSH0 DUP2 SWAP1 POP DUP2 PUSH0 MSTORE PUSH1 0x20 PUSH0 KECCAK256 SWAP1 POP SWAP2 SWAP1 POP JUMP JUMPDEST PUSH0 PUSH1 0x20 PUSH1 0x1F DUP4 ADD DIV SWAP1 POP SWAP2 SWAP1 POP JUMP JUMPDEST PUSH0 DUP3 DUP3 SHL SWAP1 POP SWAP3 SWAP2 POP POP JUMP JUMPDEST PUSH0 PUSH1 0x8 DUP4 MUL PUSH2 0xF1A PUSH32 0xFFFFFFFFFFFFFFFFFFFFFFFFFFFFFFFFFFFFFFFFFFFFFFFFFFFFFFFFFFFFFFFF DUP3 PUSH2 0xEDF JUMP JUMPDEST PUSH2 0xF24 DUP7 DUP4 PUSH2 0xEDF JUMP JUMPDEST SWAP6 POP DUP1 NOT DUP5 AND SWAP4 POP DUP1 DUP7 AND DUP5 OR SWAP3 POP POP POP SWAP4 SWAP3 POP POP POP JUMP JUMPDEST PUSH0 DUP2 SWAP1 POP SWAP2 SWAP1 POP JUMP JUMPDEST PUSH0 PUSH2 0xF5F PUSH2 0xF5A PUSH2 0xF55 DUP5 PUSH2 0xB42 JUMP JUMPDEST PUSH2 0xF3C JUMP JUMPDEST PUSH2 0xB42 JUMP JUMPDEST SWAP1 POP SWAP2 SWAP1 POP JUMP JUMPDEST PUSH0 DUP2 SWAP1 POP SWAP2 SWAP1 POP JUMP JUMPDEST PUSH2 0xF78 DUP4 PUSH2 0xF45 JUMP JUMPDEST PUSH2 0xF8C PUSH2 0xF84 DUP3 PUSH2 0xF66 JUMP JUMPDEST DUP5 DUP5 SLOAD PUSH2 0xEEB JUMP JUMPDEST DUP3 SSTORE POP POP POP POP JUMP JUMPDEST PUSH0 SWAP1 JUMP JUMPDEST PUSH2 0xFA0 PUSH2 0xF94 JUMP JUMPDEST PUSH2 0xFAB DUP2 DUP5 DUP5 PUSH2 0xF6F JUMP JUMPDEST POP POP POP JUMP JUMPDEST JUMPDEST DUP2 DUP2 LT ISZERO PUSH2 0xFCE JUMPI PUSH2 0xFC3 PUSH0 DUP3 PUSH2 0xF98 JUMP JUMPDEST PUSH1 0x1 DUP2 ADD SWAP1 POP PUSH2 0xFB1 JUMP JUMPDEST POP POP JUMP JUMPDEST PUSH1 0x1F DUP3 GT ISZERO PUSH2 0x1013 JUMPI PUSH2 0xFE4 DUP2 PUSH2 0xEBE JUMP JUMPDEST PUSH2 0xFED DUP5 PUSH2 0xED0 JUMP JUMPDEST DUP2 ADD PUSH1 0x20 DUP6 LT ISZERO PUSH2 0xFFC JUMPI DUP2 SWAP1 POP JUMPDEST PUSH2 0x1010 PUSH2 0x1008 DUP6 PUSH2 0xED0 JUMP JUMPDEST DUP4 ADD DUP3 PUSH2 0xFB0 JUMP JUMPDEST POP POP JUMPDEST POP POP POP JUMP JUMPDEST PUSH0 DUP3 DUP3 SHR SWAP1 POP SWAP3 SWAP2 POP POP JUMP JUMPDEST PUSH0 PUSH2 0x1033 PUSH0 NOT DUP5 PUSH1 0x8 MUL PUSH2 0x1018 JUMP JUMPDEST NOT DUP1 DUP4 AND SWAP2 POP POP SWAP3 SWAP2 POP POP JUMP JUMPDEST PUSH0 PUSH2 0x104B DUP4 DUP4 PUSH2 0x1024 JUMP JUMPDEST SWAP2 POP DUP3 PUSH1 0x2 MUL DUP3 OR SWAP1 POP SWAP3 SWAP2 POP POP JUMP JUMPDEST PUSH2 0x1064 DUP3 PUSH2 0xE46 JUMP JUMPDEST PUSH8 0xFFFFFFFFFFFFFFFF DUP2 GT ISZERO PUSH2 0x107D JUMPI PUSH2 0x107C PUSH2 0x97F JUMP JUMPDEST JUMPDEST PUSH2 0x1087 DUP3 SLOAD PUSH2 0xBE6 JUMP JUMPDEST PUSH2 0x1092 DUP3 DUP3 DUP6 PUSH2 0xFD2 JUMP JUMPDEST PUSH0 PUSH1 0x20 SWAP1 POP PUSH1 0x1F DUP4 GT PUSH1 0x1 DUP2 EQ PUSH2 0x10C3 JUMPI PUSH0 DUP5 ISZERO PUSH2 0x10B1 JUMPI DUP3 DUP8 ADD MLOAD SWAP1 POP JUMPDEST PUSH2 0x10BB DUP6 DUP3 PUSH2 0x1040 JUMP JUMPDEST DUP7 SSTORE POP PUSH2 0x1122 JUMP JUMPDEST PUSH1 0x1F NOT DUP5 AND PUSH2 0x10D1 DUP7 PUSH2 0xEBE JUMP JUMPDEST PUSH0 JUMPDEST DUP3 DUP2 LT ISZERO PUSH2 0x10F8 JUMPI DUP5 DUP10 ADD MLOAD DUP3 SSTORE PUSH1 0x1 DUP3 ADD SWAP2 POP PUSH1 0x20 DUP6 ADD SWAP5 POP PUSH1 0x20 DUP2 ADD SWAP1 POP PUSH2 0x10D3 JUMP JUMPDEST DUP7 DUP4 LT ISZERO PUSH2 0x1115 JUMPI DUP5 DUP10 ADD MLOAD PUSH2 0x1111 PUSH1 0x1F DUP10 AND DUP3 PUSH2 0x1024 JUMP JUMPDEST DUP4 SSTORE POP JUMPDEST PUSH1 0x1 PUSH1 0x2 DUP9 MUL ADD DUP9 SSTORE POP POP POP JUMPDEST POP POP POP POP POP POP JUMP JUMPDEST PUSH0 PUSH2 0x1134 DUP3 PUSH2 0xE46 JUMP JUMPDEST PUSH2 0x113E DUP2 DUP6 PUSH2 0xC16 JUMP JUMPDEST SWAP4 POP PUSH2 0x114E DUP2 DUP6 PUSH1 0x20 DUP7 ADD PUSH2 0xE50 JUMP JUMPDEST PUSH2 0x1157 DUP2 PUSH2 0x96F JUMP JUMPDEST DUP5 ADD SWAP2 POP POP SWAP3 SWAP2 POP POP JUMP JUMPDEST PUSH0 PUSH1 0x20 DUP3 ADD SWAP1 POP DUP2 DUP2 SUB PUSH0 DUP4 ADD MSTORE PUSH2 0x117A DUP2 DUP5 PUSH2 0x112A JUMP JUMPDEST SWAP1 POP SWAP3 SWAP2 POP POP JUMP JUMPDEST PUSH0 PUSH2 0x118C DUP3 PUSH2 0xB42 JUMP JUMPDEST SWAP2 POP PUSH0 DUP3 SUB PUSH2 0x119E JUMPI PUSH2 0x119D PUSH2 0xDD2 JUMP JUMPDEST JUMPDEST PUSH1 0x1 DUP3 SUB SWAP1 POP SWAP2 SWAP1 POP JUMP JUMPDEST PUSH32 0x5468697320626F6F6B206973206E6F7420617661696C61626C6520666F722062 PUSH0 DUP3 ADD MSTORE PUSH32 0x6F72726F77696E67000000000000000000000000000000000000000000000000 PUSH1 0x20 DUP3 ADD MSTORE POP JUMP JUMPDEST PUSH0 PUSH2 0x1203 PUSH1 0x28 DUP4 PUSH2 0xC16 JUMP JUMPDEST SWAP2 POP PUSH2 0x120E DUP3 PUSH2 0x11A9 JUMP JUMPDEST PUSH1 0x40 DUP3 ADD SWAP1 POP SWAP2 SWAP1 POP JUMP JUMPDEST PUSH0 PUSH1 0x20 DUP3 ADD SWAP1 POP DUP2 DUP2 SUB PUSH0 DUP4 ADD MSTORE PUSH2 0x1230 DUP2 PUSH2 0x11F7 JUMP JUMPDEST SWAP1 POP SWAP2 SWAP1 POP JUMP JUMPDEST PUSH0 PUSH1 0x40 DUP3 ADD SWAP1 POP DUP2 DUP2 SUB PUSH0 DUP4 ADD MSTORE PUSH2 0x1250 DUP2 DUP6 DUP8 PUSH2 0xCF6 JUMP JUMPDEST SWAP1 POP PUSH2 0x125F PUSH1 0x20 DUP4 ADD DUP5 PUSH2 0xB1A JUMP JUMPDEST SWAP5 SWAP4 POP POP POP POP JUMP INVALID LOG2 PUSH5 0x6970667358 0x22 SLT KECCAK256 0xCA SWAP12 0x29 SWAP12 PUSH25 0x24E5B289B704E2336E659C2CDE312A44C4264145CC4E73E83B 0xED 0xD PUSH5 0x736F6C6343 STOP ADDMOD ISZERO STOP CALLER "
				},
				"gasEstimates": {
					"creation": {
						"codeDepositCost": "953000",
						"executionCost": "25251",
						"totalCost": "978251"
					},
					"external": {
						"addBook(string)": "infinite",
						"bookCount()": "2491",
						"borrowBook(string)": "infinite",
						"owner()": "2549",
						"removeBook(string)": "infinite",
						"returnBook(string)": "infinite"
					}
				},
				"methodIdentifiers": {
					"addBook(string)": "3bc5f48a",
					"bookCount()": "b905ad78",
					"borrowBook(string)": "ced96fe3",
					"owner()": "8da5cb5b",
					"removeBook(string)": "6e4a44c5",
					"returnBook(string)": "1ef49a8c"
				}
			},
			"storageLayout": {
				"storage": [
					{
						"astId": 3,
						"contract": "contracts/Library.sol:Library",
						"label": "owner",
						"offset": 0,
						"slot": "0",
						"type": "t_address"
					},
					{
						"astId": 15,
						"contract": "contracts/Library.sol:Library",
						"label": "Books",
						"offset": 0,
						"slot": "1",
						"type": "t_mapping(t_string_memory_ptr,t_struct(book)10_storage)"
					},
					{
						"astId": 17,
						"contract": "contracts/Library.sol:Library",
						"label": "bookCount",
						"offset": 0,
						"slot": "2",
						"type": "t_uint256"
					}
				],
				"types": {
					"t_address": {
						"encoding": "inplace",
						"label": "address",
						"numberOfBytes": "20"
					},
					"t_bool": {
						"encoding": "inplace",
						"label": "bool",
						"numberOfBytes": "1"
					},
					"t_mapping(t_string_memory_ptr,t_struct(book)10_storage)": {
						"encoding": "mapping",
						"key": "t_string_memory_ptr",
						"label": "mapping(string => struct Library.book)",
						"numberOfBytes": "32",
						"value": "t_struct(book)10_storage"
					},
					"t_string_memory_ptr": {
						"encoding": "bytes",
						"label": "string",
						"numberOfBytes": "32"
					},
					"t_string_storage": {
						"encoding": "bytes",
						"label": "string",
						"numberOfBytes": "32"
					},
					"t_struct(book)10_storage": {
						"encoding": "inplace",
						"label": "struct Library.book",
						"members": [
							{
								"astId": 5,
								"contract": "contracts/Library.sol:Library",
								"label": "title",
								"offset": 0,
								"slot": "0",
								"type": "t_string_storage"
							},
							{
								"astId": 7,
								"contract": "contracts/Library.sol:Library",
								"label": "borrower",
								"offset": 0,
								"slot": "1",
								"type": "t_address"
							},
							{
								"astId": 9,
								"contract": "contracts/Library.sol:Library",
								"label": "available",
								"offset": 20,
								"slot": "1",
								"type": "t_bool"
							}
						],
						"numberOfBytes": "64"
					},
					"t_uint256": {
						"encoding": "inplace",
						"label": "uint256",
						"numberOfBytes": "32"
					}
				}
			},
			"userdoc": {
				"kind": "user",
				"methods": {},
				"version": 1
			}
		}
	}
}